S01200005254432E4453313330372E7372656399
S11300000C942A000C9447000C9447000C9447006D
S11300100C9447000C9447000C9447000C94470040
S11300200C9447000C9447000C9447000C94120362
S11300300C9447000C9447000C9447000C94470020
S11300400C9447000C9447000C9447000C94470010
S11300500C94470011241FBECFE5D8E0DEBFCDBF0E
S113006010E0A0E6B0E0E4E6FEE002C005900D92E8
S1130070A039B107D9F720E0A0E9B0E001C01D9292
S1130080A33AB207E1F70E9449000C9430070C949C
S11300900000AF9A0E940D040E94F5030E94CF0055
S11300A087E690E00E9449042FEF39E668E1215089
S11300B030406040E1F700C0000083B7856083BF33
S11300C089B7816089BF7894809192000E949101E0
S11300D0CAE9D0E08883809166000E9491018983F7
S11300E0809160008823A9F0809165000E949101AD
S11300F0909160002091910030E2239FA00111248F
S113010060E4969F90011124242B822B80939C0001
S113011006C0809165000E94910180939C008091AB
S113012064000E949101CAE9D0E08B83809163004E
S11301300E9491018C83809162000E9491018D83C1
S1130140809161000E9491018E838881E3E9F0E04F
S11301508083898181838A8182838B8183838C815B
S113016084838D8185838E8186830E94CF0067E09E
S113017080E00E9417010E94A4019F99FECF47E0EE
S113018063E970E080E00E94D5008FEF95EA2EE0ED
S1130190815090402040E1F700C00000EECF87E698
S11301A080B981B18C7F81B9089530ED24E896B788
S11301B0946A96BF06B607FEFDCF91B1987F98303A
S11301C081F533B926BF06B607FEFDCF91B1987FFE
S11301D0983169F783B984E886BF06B607FEFDCF78
S11301E081B1887F8832F9F44423B9F0FB018FEFA1
S11301F0840F90E001969B01280F391F94E88081B9
S113020083B996BF06B607FEFDCF81B1887F8832D9
S113021061F43196E217F30791F784E986BF81E030
S1130220089580E0089580E0089580E0089524EA28
S113023040ED34E826BF06B607FEFDCF91B1987FA6
S1130240983009F057C043B936BF06B607FEFDCF54
S113025091B1987F983171F783B984E886BF06B667
S113026007FEFDCF81B1887F883209F045C084EA5A
S113027086BF06B607FEFDCF81B1887F8031F1F5D8
S113028081ED83B984E886BF06B607FEFDCF81B150
S1130290887F8034A9F5862F90E0019718161906F7
S11302A0BCF420E030E050E064EC66BF06B607FE24
S11302B0FDCF41B1487F403529F543B1F901E656F8
S11302C0FF4F40835F5F252F30E0281739076CF319
S11302D024E826BF06B607FEFDCF21B1287F2835C6
S11302E099F423B1FC01E656FF4F208384E986BFCD
S11302F081E0089580E0089580E0089580E0089505
S113030080E0089580E0089580E00895982F929504
S11303109F70990F292F220F220F920F8F70890F30
S113032008959DEC899F912D112496959695969507
S1130330392F330F232F220F220F230F821B20E18B
S1130340929F800D11240895CF93DF93CAE9D0E0E2
S113035088818F770E9486018093920089818F77AC
S11303600E9486018093660080916000882341F09A
S113037080919C008F710E9486018093650007C064
S113038080919C008F730E94860180936500CAE966
S1130390D0E08C810E948601809363008D810E944D
S11303A08601809362008E810E94860180936100A1
S11303B00E94F50386E790E00E944904809165005D
S11303C01F928F938DE790E09F938F9381EA90E043
S11303D09F938F930E94580467E070E081E090E05F
S11303E00E94FF03809165000F900F900F900F9073
S11303F00F900F908A3020F480E390E00E943A043A
S113040081EA90E00E94490469E070E081E090E0B4
S11304100E94FF038DE290E00E943A0480916600FE
S11304201F928F938DE790E09F938F9381EA90E0E2
S11304309F938F930E9458046AE070E081E090E0FB
S11304400E94FF03809166000F900F900F900F9011
S11304500F900F908A3020F480E390E00E943A04D9
S113046081EA90E00E9449046CE070E081E090E051
S11304700E94FF038DE290E00E943A048091920072
S11304801F928F938DE790E09F938F9381EA90E082
S11304909F938F930E9458046DE070E081E090E098
S11304A00E94FF03809192000F900F900F900F9085
S11304B00F900F908A3020F480E390E00E943A0479
S11304C081EA90E00E94490480916000882399F0B9
S11304D06FE070E081E090E00E94FF0380919C0057
S11304E085FF05C080E890E00E94490404C083E8C9
S11304F090E00E94490461E070E082E090E00E9494
S1130500FF0386E890E00E944904809163001F92F3
S11305108F938DE790E09F938F9381EA90E09F9370
S11305208F930E94580467E070E082E090E00E949C
S1130530FF03809163000F900F900F900F900F9026
S11305400F908A3020F480E390E00E943A0481EA1C
S113055090E00E94490469E070E082E090E00E942B
S1130560FF038DE290E00E943A04809162001F92A2
S11305708F938DE790E09F938F9381EA90E09F9310
S11305808F930E9458046AE070E082E090E00E9439
S1130590FF03809162000F900F900F900F900F90C7
S11305A00F908A3020F480E390E00E943A0481EABC
S11305B090E00E9449046CE070E082E090E00E94C8
S11305C0FF038DE290E00E943A048DE890E00E94DF
S11305D04904809161001F928F938DE790E09F936F
S11305E08F9381EA90E09F938F930E9458046FE069
S11305F070E082E090E00E94FF03809161000F9020
S11306000F900F900F900F900F908A3020F480E39A
S113061090E00E943A0481EA90E00E944904DF914C
S1130620CF9108951F920F920FB60F9211242F931A
S11306303F934F935F936F937F938F939F93AF9366
S1130640BF93EF93FF93809190008F5F809390000E
S1130650809190008A3008F467C067E080E00E94CF
S1130660170180919A000E94860190919200891747
S113067009F458C080919A008F770E948601809374
S11306809200809192001F928F938DE790E09F9348
S11306908F9381EA90E09F938F930E9458048091F6
S11306A092000F900F900F900F900F900F908A3040
S11306B0F8F46DE070E081E090E00E94FF0380E3D5
S11306C090E00E943A046EE070E081E090E00E94C5
S11306D0FF038DE290E00E943A046EE070E081E056
S11306E090E00E94FF0381EA90E00E94490414C054
S11306F06DE070E081E090E00E94FF038DE290E005
S11307000E943A046DE070E081E090E00E94FF03F3
S113071081EA90E00E94490480919200811102C014
S11307200E94A40110929000FF91EF91BF91AF91AC
S11307309F918F917F916F915F914F913F912F91F5
S11307400F900FBE0F901F901895909887EC90E033
S11307500197F1F700C00000919887EC90E00197B1
S1130760F1F700C000000895909A87EC90E001979B
S1130770F1F700C00000919887EC90E00197F1F741
S113078000C00000089580FF02C0949A01C09498AC
S113079081FF02C0959A01C0959882FF02C0969A83
S11307A001C0969883FF02C0979A01C09798929AC5
S11307B087EC90E00197F1F700C00000929887EC75
S11307C090E00197F1F700C000000895CF93C82F7F
S11307D00E94A5038C2F82958F700E94C3038C2FD7
S11307E08F700E94C303CF91089581E00E94E603B5
S11307F08FE39FE10197F1F700C000000895813075
S113080029F48FE7860F0E94E6030895823021F4CD
S11308108FEB860F0E94E60308958FEF81BB2FEFC5
S113082089EF90E0215080409040E1F700C0000043
S113083083E00E94E6038FE19EE40197F1F700C094
S1130840000083E00E94E6038FE99FE00197F1F73F
S113085000C0000083E00E94E60382E00E94E603F9
S113086088E20E94E6038CE00E94E60386E00E9490
S1130870E6030895CF93C82F0E94B4038C2F82956A
S11308808F700E94C3038C2F8F700E94C303CF917B
S11308900895CF93DF93EC018881882331F021966A
S11308A00E943A0489918111FBCFDF91CF91089581
S11308B0AEE0B0E0EEE5F4E00C9407070D891E8984
S11308C086E08C831A8309838FEF9FE79E838D8351
S11308D0AE01475E5F4F6F89788DCE0101960E940D
S11308E07B042F813885F801E20FF31F10822E96C6
S11308F0E4E00C942307ACE0B0E0E1E8F4E00C940D
S1130900F9067C016B018A01FC011782168283813E
S113091081FFBDC1CE0101964C01F7019381F6011F
S113092093FD859193FF81916F01882309F4ABC1F5
S1130930853239F493FD859193FF81916F0185325E
S113094029F4B70190E00E946306E7CF512C312CC3
S113095020E02032A0F48B3269F030F4803259F078
S1130960833269F420612CC08D3239F0803339F43C
S1130970216026C02260246023C0286021C027FD96
S113098027C030ED380F3A3078F426FF06C0FAE07D
S11309905F9E300D1124532E13C08AE0389E300D13
S11309A01124332E20620CC08E3221F426FD6BC13B
S11309B0206406C08C3611F4206802C0883641F4E5
S11309C0F60193FD859193FF81916F018111C1CF50
S11309D0982F9F7D9554933028F40C5F1F4FFFE3AD
S11309E0F9830DC0833631F0833771F0833509F014
S11309F05BC022C0F801808189830E5F1F4F4424AD
S1130A004394512C540115C03801F2E06F0E711C4F
S1130A10F801A080B18026FF03C0652D70E002C0FC
S1130A206FEF7FEFC5012C870E9458062C018301CC
S1130A302C852F77222E17C03801F2E06F0E711C1F
S1130A40F801A080B18026FF03C0652D70E002C0CC
S1130A506FEF7FEFC5012C870E944D062C012C857A
S1130A602068222E830123FC1BC0832D90E04816AE
S1130A705906B0F4B70180E290E00E9463063A940C
S1130A80F4CFF50127FC859127FE81915F01B70121
S1130A9090E00E94630631103A94F1E04F1A510835
S1130AA04114510471F7E5C0843611F0893639F5E3
S1130AB0F80127FF07C060817181828193810C5FF7
S1130AC01F4F08C060817181072E000C880B990BA1
S1130AD00E5F1F4F2F76722E97FF09C09095809559
S1130AE0709561957F4F8F4F9F4F2068722E2AE03B
S1130AF030E0A4010E949B06A82EA81844C08537A4
S1130B0029F42F7EB22E2AE030E025C0F22FF97F9F
S1130B10BF2E8F36C1F018F4883579F0B4C0803711
S1130B2019F0883721F0AFC02F2F2061B22EB4FE08
S1130B300DC08B2D8460B82E09C024FF0AC09F2FDE
S1130B409660B92E06C028E030E005C020E130E010
S1130B5002C020E132E0F801B7FE07C06081718174
S1130B60828193810C5F1F4F06C06081718180E098
S1130B7090E00E5F1F4FA4010E949B06A82EA818A8
S1130B80FB2DFF777F2E76FE0BC0372D3E7FA514FD
S1130B9050F474FE0AC072FC08C0372D3E7E05C0B6
S1130BA0BA2C372D03C0BA2C01C0B52C34FF0DC0AC
S1130BB0FE01EA0DF11D8081803311F4397E09C0F4
S1130BC032FF06C0B394B39404C0832F867809F02F
S1130BD0B39433FD13C030FF06C05A2CB31418F479
S1130BE0530C5B18B32CB31468F4B70180E290E0A3
S1130BF03C870E946306B3943C85F5CFB31410F48C
S1130C003B1801C0312C34FF12C0B70180E390E0DF
S1130C103C870E9463063C8532FF17C031FD03C048
S1130C2088E790E002C088E590E0B7010CC0832F0C
S1130C30867859F031FF02C08BE201C080E237FDB3
S1130C408DE2B70190E00E946306A51438F4B70161
S1130C5080E390E00E9463065A94F7CFAA94F401CB
S1130C60EA0DF11D8081B70190E00E946306A11096
S1130C70F5CF332009F451CEB70180E290E00E9411
S1130C8063063A94F6CFF7018681978102C08FEF0D
S1130C909FEF2C96E2E10C941507FC01059061503E
S1130CA070400110D8F7809590958E0F9F1F08957E
S1130CB0FC016150704001900110D8F78095909527
S1130CC08E0F9F1F08950F931F93CF93DF93FB0104
S1130CD0238121FD03C08FEF9FEF28C022FF16C0A0
S1130CE046815781248135814217530744F4A081FA
S1130CF0B1819D012F5F3F4F318320838C932681E7
S1130D0037812F5F3F4F3783268310C0EB01092FB4
S1130D10182F0084F185E02D0995892BE1F68E8149
S1130D209F8101969F838E83812F902FDF91CF9196
S1130D301F910F910895FA01AA27283051F120310B
S1130D4081F1E8946F936E7F6E5F7F4F8F4F9F4F5B
S1130D50AF4FB1E03ED0B4E03CD0670F781F891F9D
S1130D609A1FA11D680F791F8A1F911DA11D6A0F6B
S1130D70711D811D911DA11D20D009F468943F911E
S1130D802AE0269F11243019305D3193DEF6CF011D
S1130D900895462F4770405D4193B3E00FD0C9F7E3
S1130DA0F6CF462F4F70405D4A3318F0495D31FD50
S1130DB04052419302D0A9F7EACFB4E0A6959795A3
S1130DC0879577956795BA95C9F700976105710579
S1130DD008959B01AC010A2E0694579547953795C3
S1130DE02795BA95C9F7620F731F841F951FA01D1D
S1130DF008952F923F924F925F926F927F928F92BB
S1130E009F92AF92BF92CF92DF92EF92FF920F9395
S1130E101F93CF93DF93CDB7DEB7CA1BDB0B0FB69F
S1130E20F894DEBF0FBECDBF09942A88398848885C
S1130E305F846E847D848C849B84AA84B984C884F2
S1130E40DF80EE80FD800C811B81AA81B981CE0FE9
S1130E50D11D0FB6F894DEBF0FBECDBFED010895CE
S1070E60F894FFCF30
S1130E640111030B01100852544320696E2072755A
S1130E746E6E696E670054696D653A2000256900D9
S1130E84504D00414D00446174653A2000323000F5
S9030000FC
