S00B00004C43442E7372656346
S11300000C942A000C943F000C943F000C943F0085
S11300100C943F000C943F000C943F000C943F0060
S11300200C943F000C943F000C943F000C943F0050
S11300300C943F000C943F000C943F000C943F0040
S11300400C943F000C943F000C943F000C943F0030
S11300500C943F0011241FBECFE5D8E0DEBFCDBF16
S113006010E0A0E6B0E0EEEDF2E002C005900D92E3
S1130070A437B107D9F70E9441000C946D010C9488
S113008000000E94AC000E94940062E081E00E94A3
S11300909E0080E690E00E94F40061E082E00E940D
S11300A09E008CE090E00E940301FFCF80FF02C01D
S11300B0949A01C0949881FF02C0959A01C09598C2
S11300C082FF02C0969A01C0969883FF02C0979A55
S11300D001C09798929A87EC90E00197F1F700C0DD
S11300E00000929887EC90E00197F1F700C00000BF
S11300F00895CF93C82F909887EC90E00197F1F77B
S113010000C00000919887EC90E00197F1F700C0DF
S113011000008C2F82958F700E9456008C2F8F7058
S11301200E945600CF91089581E00E9479008FE3E8
S11301309FE10197F1F700C000000895813029F490
S11301408FE7860F0E9479000895823021F48FEBA7
S1130150860F0E94790008958FEF81BB2FEF89EFFE
S113016090E0215080409040E1F700C0000083E01F
S11301700E9479008FE19EE40197F1F700C000002E
S113018083E00E9479008FE99FE00197F1F700C0B6
S1130190000083E00E94790082E00E94790088E2F6
S11301A00E9479008CE00E94790086E00E94790028
S11301B00895CF93C82F909A87EC90E00197F1F7B8
S11301C000C00000919887EC90E00197F1F700C01F
S11301D000008C2F82958F700E9456008C2F8F7098
S11301E00E945600CF910895CF93DF93EC0188814C
S11301F0882331F021960E94D90089918111FBCF87
S1130200DF91CF9108950F931F93CF93DF9300D085
S113021000D01F92CDB7DEB78C014AE0BE016F5FFC
S11302207F4F0E9438010A30110528F48FE690E0D0
S11302300E94F4000FC00436110528F480E790E012
S11302400E94F40007C0083E134020F481E790E0C8
S11302500E94F400CE0101960E94F4000F900F90CA
S11302600F900F900F90DF91CF911F910F910895F0
S1130270BB274A3031F4992322F4BDE2909581954D
S11302809F4F0C944401BB27FB015527AA27880FD5
S1130290991FAA1FA41710F0A41B83955051B9F7F6
S11302A0A05DAA3308F0A95DA193009779F7B11175
S11302B0B1931192CB010C945D01DC01FC01672F19
S11302C071917723E1F7329704C07C916D93708329
S11102D06291AE17BF07C8F30895F894FFCFEC
S11302DE54686973206973206120746573740030E7
S10702EE30300000A8
S9030000FC
