S00E000042757A7A65722E7372656394
S11300000C942A000C943C000C943C000C943C008E
S11300100C943C000C943C000C943C000C943C006C
S11300200C943C000C943C000C943C000C943C005C
S11300300C943C000C943C000C943C000C943C004C
S11300400C943C000C943C000C943C000C943C003C
S11300500C943C0011241FBECFE5D8E0DEBFCDBF19
S113006020E0A0E6B0E001C01D92A336B207E1F79C
S11300700E947E000C949E000C940000CF93DF93AA
S11300801F92CDB7DEB78983898190E002C0959530
S113009087956A95E2F780FD15C0809162008F5FB5
S11300A080936200109261008536F8F080916000C0
S11300B0811104C081E0809360001CC01092620032
S11300C080E018C0809161008F5F8093610010927E
S11300D06200853660F080916000813051F41092A6
S11300E060001092610080E005C080E003C080E001
S11300F001C080E00F90DF91CF9108950E948B00A2
S1130100BF98C79A86B367E00E943E008823D1F364
S11301100E948F00F7CFB89A81E088BB08959AEFC8
S113012021E088B3822788BBEFE3FFE13197F1F741
S113013000C000009150A9F7C09A0895F894FFCF29
S9030000FC
