S00D0000536C6176652E737265631C
S11300000C942A000C9447000C9447000C9447006D
S11300100C9447000C9447000C9447000C94470040
S11300200C9447000C9447000C9447000C94470030
S11300300C9451000C9447000C9447000C94470016
S11300400C9447000C9447000C9447000C94470010
S11300500C94470011241FBECFE5D8E0DEBFCDBF0E
S113006010E0A0E6B0E0EAE3F6E002C005900D92ED
S1130070AA36B107D9F720E0AAE6B0E001C01D9284
S1130080AB36B207E1F70E94B3020C941B030C9445
S11300900000BE9A87B38F7487BB8DB1806C8DB915
S11300A008951F920F920FB60F9211248F938FB160
S11300B080936A008F910F900FBE0F901F90189538
S11300C0672B09F09FC0009711F4D89808958130E8
S11300D0910511F4D99808958230910511F4DA98B4
S11300E008958330910511F4DB98089584309105C7
S11300F011F4DC9808958530910511F4DD98089584
S11301008630910511F4DE9808958730910511F435
S1130110DF9808958A30910511F4C09808958B30C2
S1130120910511F4C19808958C30910511F4C29889
S113013008958D30910511F4C39808958E3091057A
S113014011F4C49808958F30910511F4C598089559
S11301508031910511F4C69808958131910511F407
S1130160C79808958431910511F4A89808958531AC
S1130170910511F4A99808958631910511F4AA986E
S113018008958731910511F4AB980895883191054C
S113019011F4AC9808958931910511F4AD9808953E
S11301A08A31910511F4AE9808958B31910511F4BB
S11301B0AF9808958E31910511F4909808958F3178
S11301C0910511F4919808958032910511F4929853
S11301D008958132910511F493980895823291051E
S11301E011F4949808958332910511F49598089523
S11301F08432910511F496980895859709F09FC06B
S113020097980895009711F4D89A0895813091052C
S113021011F4D99A08958230910511F4DA9A089567
S11302208330910511F4DB9A08958430910511F41B
S1130230DC9A08958530910511F4DD9A089586308D
S1130240910511F4DE9A08958730910511F4DF9A2F
S113025008958A30910511F4C09A08958B30910560
S113026011F4C19A08958C30910511F4C29A08953D
S11302708D30910511F4C39A08958E30910511F4CF
S1130280C49A08958F30910511F4C59A0895803168
S1130290910511F4C69A08958131910511F4C79A14
S11302A008958431910511F4A89A08958531910532
S11302B011F4A99A08958631910511F4AA9A089522
S11302C08731910511F4AB9A08958831910511F4A1
S11302D0AC9A08958931910511F4AD9A08958A3143
S11302E0910511F4AE9A08958B31910511F4AF9AEA
S11302F008958E31910511F4909A08958F319105E6
S113030011F4919A08958032910511F4929A089506
S11303108132910511F4939A08958232910511F472
S1130320949A08958332910511F4959A089584322C
S1130330910511F4969A0895859709F4979A08956A
S1130340CF93C82F80FF07C061E070E082E290E0A5
S11303500E94600006C060E070E082E290E00E94CB
S11303606000C1FF07C061E070E083E290E00E949A
S1130370600006C060E070E083E290E00E946000EC
S1130380C2FF07C061E070E084E290E00E94600078
S113039006C060E070E084E290E00E946000C3FF69
S11303A007C061E070E085E290E00E94600006C052
S11303B060E070E085E290E00E946000CF910895D3
S11303C0CF93C82F60E070E08EE190E00E9460005F
S11303D08C2F0E94A00161E070E080E290E00E9416
S11303E060008FE99FE00197F1F700C0000060E032
S11303F070E080E290E00E9460008FE99FE0019746
S1130400F1F700C00000CF91089580E00E94E00160
S113041081E00E94E0010895CF93813061F4CFE739
S1130420C60F8C2F82958F700E94E0018C2F8F70E5
S11304300E94E0010DC0823059F4CFEBC60F8C2F1F
S113044082958F700E94E0018C2F8F700E94E001D2
S1130450CF91089580E00E94A0012FEF89EF90E0F2
S1130460215080409040E1F700C0000083E00E94EA
S1130470E0018FE19EE40197F1F700C0000083E002
S11304800E94E0018FE99FE00197F1F700C00000AE
S113049083E00E94E00182E00E94E00182E00E9489
S11304A0E00188E00E94E00180E00E94E0018CE02D
S11304B00E94E00180E00E94E00186E00E94E001E9
S11304C00895CF93C82F61E070E08EE190E00E9420
S11304D060008C2F82958F700E94A00161E070E013
S11304E080E290E00E9460008FE99FE00197F1F7BD
S11304F000C0000060E070E080E290E00E946000D4
S11305008FE99FE00197F1F700C000008C2F8F70F6
S11305100E94A00161E070E080E290E00E9460002F
S11305208FE99FE00197F1F700C0000060E070E000
S113053080E290E00E9460008FE99FE00197F1F76C
S113054000C00000CF910895CF93DF93EC01888120
S1130550882331F021960E94610289918111FBCF99
S1130560DF91CF910895CF93DF93CDB7DEB72A976C
S11305700FB6F894DEBF0FBECDBF78940E94490039
S11305800E942A020E94050280E690E00E94A402D2
S113059080916A004AE050E0BE016F5F7F4F90E0B7
S11305A00E94DB0261E082E00E940C02CE0101960F
S11305B00E94A402E9CF4532510520F4423010F0E4
S11305C00C94E602FB011082CB010895BB274A304C
S11305D031F4992322F4BDE2909581959F4F0C94B8
S11305E0F202BB27FB015527AA27880F991FAA1FD0
S11305F0A41710F0A41B83955051B9F7A05DAA333A
S113060008F0A95DA193009779F7B111B193119204
S1130610CB010C940B03DC01FC01672F7191772350
S1130620E1F7329704C07C916D9370836291AE17A9
S10D0630BF07C8F30895F894FFCF44
S10D063A446174612052783A000014
S9030000FC
