S00E00005354373932302E737265639D
S11300000C942A000C9447000C9447000C9447006D
S11300100C9447000C9447000C9447000C94470040
S11300200C9447000C9447000C9447000C94470030
S11300300C9447000C9447000C9447000C94470020
S11300400C9447000C9447000C9447000C94470010
S11300500C94470011241FBECFE5D8E0DEBFCDBF0E
S113006010E0A0E6B0E0EAEAF8E002C005900D92E4
S1130070A43EB107D9F720E0A4EEB0E001C01D9280
S1130080A43EB207E1F70E9449000C9453040C9477
S11300900000CF92DF92FF920F931F93CF93DF93D1
S11300A0CDB7DEB7C054D1090FB6F894DEBF0FBE8A
S11300B0CDBF80E1E0EAF0E0DE01119601900D92FF
S11300C08A95E1F780E1E1EBF0E0DE0151960190E1
S11300D00D928A95E1F780E1E2ECF0E0DE01919681
S11300E001900D928A95E1F780E1E3EDF0E0DE0105
S11300F0D19601900D928A95E1F70E9481010E94A8
S1130100A4018E010F5F1F4F6E0121E1C20ED11CAD
S1130110F80181918F010E94F9010C151D05C1F7A9
S11301208E010F5D1F4F6E01F1E3CF0ED11CF8015C
S113013081918F010E94F9010C151D05C1F78E01F3
S11301400F5E1F4F6E01F1E2CF0ED11CF8018191B9
S11301508F010E94F9010C151D05C1F78E010F5C7A
S11301601F4F6801F0E1CF0ED11CF80181918F017E
S11301700E94F9010C151D05C1F7FFEF23ED80E383
S1130180F15020408040E1F700C000000E94A4012B
S11301900E943B0280E090E00E945E029FEFE3ED4C
S11301A0F0E39150E040F040E1F700C0000040E08F
S11301B06BE387E00E94A80244E650E06BE381E72A
S11301C00E94EB0249E060E080E00E94A80240E067
S11301D065E380E00E94A80249E750E069E370E02B
S11301E086E090E00E945E0349E350E060E070E046
S11301F086E090E00E9479030F2EF7E0FF2EF02DA9
S11302006894CC24C5F8D12C0E94EF0383709078B5
S1130210992324F401978C6F9F6F01968C016C2DA8
S11302208F2D0E9486020130110521F421E0C21AAB
S1130230D10806C0023011051CF08FEFC81AD80A85
S1130240F39490E8F912E0CF80E090E0C05CDF4FD7
S11302500FB6F894DEBF0FBECDBFDF91CF911F91D3
S11302600F91FF90DF90CF900895A8988FE391E0CD
S11302700197F1F700C00000A9988FE391E001977E
S1130280F1F700C000000895A8988FE391E001976A
S1130290F1F700C00000A99A8FE391E00197F1F70C
S11302A000C000000895A89A8FE391E00197F1F748
S11302B000C00000A9988FE391E00197F1F700C016
S11302C000000895A89A8FE391E00197F1F700C028
S11302D00000A99A8FE391E00197F1F700C00000B4
S11302E0089588BBAA9A8FE391E00197F1F700C0C3
S11302F00000AA988FE391E00197F1F700C0000095
S113030008958FEF87BB87E084BBAA988FE391E0C1
S11303100197F1F700C000000E94350180E30E94BC
S113032071018FE99FE00197F1F700C0000080E3BD
S11303300E9471018CE00E94710181E00E947101B0
S113034086E00E9471010895AA988FE391E00197D5
S1130350F1F700C000000E94350181E00E947101A4
S1130360089517BA18BAAA98EFE3F1E03197F1F7B4
S113037000C00000811103C00E94440102C00E9419
S11303806201AA9A8FE391E00197F1F700C000009F
S113039086B3AA98EFE3F1E03197F1F700C00000CB
S11303A0AA9A8FE391E00197F1F700C0000026B309
S11303B0AA98EFE3F1E03197F1F700C000008FE96C
S11303C09FE00197F1F700C00000AA9AEFE3F1E083
S11303D03197F1F700C0000086B3AA98EFE3F1E08B
S11303E03197F1F700C000009FEF97BB90E0922B8C
S11303F00895CF93C82FAA988FE391E00197F1F75E
S113040000C000000E9453018C2F0E947101CF9103
S11304100895CF93DF93D82FC62FAA988FE391E046
S11304200197F1F700C000000E943501C03210F0BE
S1130430C052D85F8C2F80680E9471018D2F806814
S11304400E947101DF91CF910895CF93DF93C42F60
S1130450D52F0E940902A89A8FE391E00197F1F742
S113046000C000008D2F0E9471018C2F0E94710129
S1130470DF91CF9108958FEF87BB87E084BBAA9863
S11304808FE391E00197F1F700C000000E9435016D
S113049080E30E9471018FE99FE00197F1F700C0AA
S11304A0000086E30E9471018CE00E94710181E0EA
S11304B00E94710186E00E9471010895CF92DF923B
S11304C0EF92FF920F931F93CF93DF937C0100E091
S11304D010E0C12CD12C0EC0A701B801CE010E949E
S11304E025022196C830D105B9F70F5F1F4F00349C
S11304F0110519F0CC2DDD2DEFCFDF91CF911F9198
S11305000F91FF90EF90DF90CF9008951F93CF93BA
S1130510DF93C62F182F12951F70D82FDF70812FED
S11305200E94090281E00E94B10140E050E802C04B
S113053056954795DA95E2F7482B592B6C2F70E0C6
S1130540812F90E00E942502DF91CF911F910895A1
S1130550AF92BF92CF92DF92EF92FF920F931F93CD
S1130560CF93DF93162F50E07A01EE0CFF1CEE0CB4
S1130570FF1C4E0D5F1D9A012C593F4F79010F2E20
S1130580F5E0AF2EF02DA60E0F2EF3E0DF2EF02DAA
S1130590D80EC82E6894BB24B3F8F70101917F01EB
S11305A0CC2DDB2D9D2F902321F0612F8C2F0E94C9
S11305B08602CF5FD695CD11F5CF1F5F1A11EDCF0F
S11305C0DF91CF911F910F91FF90EF90DF90CF902B
S11305D0BF90AF900895EF92FF920F931F93CF9324
S11305E0DF93182F062FEA01483E23E05207E0F07C
S11305F09A01369527953695279536952795A5EC36
S1130600B0E20E949403929582958F7089279F701F
S11306108927482F68E17CEF869F9001879F300DE2
S11306201124C20FD31F01C04BE0C436D10590F092
S11306309E013695279536952795ABE7B4E10E9440
S1130640940396958795E82E24E6829FC019D109D4
S1130650112401C0E12CCA30D10590F09E01ADEC0B
S1130660BCEC0E94940396958795969587959695EC
S11306708795F82E2AE0829FC019D109112401C060
S1130680F12C602F812F0E94A8024E2D602F84E050
S1130690810F0E94A8024F2D602F88E0810F0E94D5
S11306A0A8024C2F602F8CE0810F0E94A802DF91DA
S11306B0CF911F910F91FF90EF900895FF920F93A8
S11306C01F93CF93DF93EC01F62E141615065CF4FA
S11306D08C01040F151F6F2D8C2F0E94860221960A
S11306E0C017D107C1F7DF91CF911F910F91FF90F0
S11306F00895FF920F931F93CF93DF93F82EEB018E
S1130700141615065CF48B01040F151F6C2F8F2D26
S11307100E9486022196C017D107C1F7DF91CF91BD
S11307201F910F91FF900895A29FB001B39FC00144
S1130730A39F700D811D1124911DB29F700D811D09
S11307401124911D08958F929F92AF92BF92CF92E0
S1130750DF92EF92FF92CF93DF93EC01688179816E
S11307608A819B81611571058105910521F464E2FB
S113077079ED8BE597E02DE133EF41E050E00E9405
S1130780FF0349015A019B01AC01A7EAB1E40E94AD
S11307901E046B017C01ACEEB4EFA50194010E9430
S11307A02C04DC01CB018C0D9D1DAE1DBF1DB7FFBC
S11307B003C00197A109B04888839983AA83BB83A6
S11307C09F77DF91CF91FF90EF90DF90CF90BF9014
S11307D0AF909F908F9008950E94A303089580E6A0
S11307E090E00E94A3030895A0E0B0E0809360002D
S11307F090936100A0936200B09363000895052E66
S113080097FB1EF400940E94160457FD07D00E9423
S1130810310407FC03D04EF40C9416045095409513
S1130820309521953F4F4F4F5F4F08959095809598
S1130830709561957F4F8F4F9F4F08950E94940349
S1130840A59F900DB49F900DA49F800D911D112420
S11308500895B7FF0C941E040E941E04821B930B80
S11308600895A1E21A2EAA1BBB1BFD010DC0AA1FED
S1130870BB1FEE1FFF1FA217B307E407F50720F005
S1130880A21BB30BE40BF50B661F771F881F991F80
S11308901A9469F760957095809590959B01AC01C9
S10D08A0BD01CF010895F894FFCFC5
S11308AA010000000E0A0A0A0E04040404040E02DB
S11308BA0E080E0E020E020E0A0A0E02020E080E8E
S11308CA020E0E080E0A0E0E020202020E0A0E0A88
S11308DA0E0E0A0E020200000E00000000000000C4
S11308EA2D2D2D2D2D5354373932302D2D2D2D2DBF
S11308FA002D2D2D4368617261637465722D2D2D4F
S113090A2D002D2D2D2D2D2D4D6F64652D2D2D2D65
S113091A2D2D002D2D2D5454486F616E672D3230C4
S107092A31372D0030
S9030000FC
