S00E00004D61737465722E73726563AA
S11300000C942A000C9447000C9447000C9447006D
S11300100C9447000C9447000C9447000C94470040
S11300200C9447000C9447000C9447000C94470030
S11300300C9479000C9447000C9447000C944700EE
S11300400C9447000C9447000C9447000C94470010
S11300500C94470011241FBECFE5D8E0DEBFCDBF0E
S113006010E0A0E6B0E0ECEAF2E002C005900D92E8
S1130070AE36B107D9F720E0AEE6B0E001C01D927C
S1130080A037B207E1F70E948D000C9454010C9440
S1130090000087B3806B87BBBE988DB1806D8DB92E
S11300A0C49A089548B321E030E0F90102C0EE0F8C
S11300B0FF1F8A95E2F7CF012E2F2095422348BBDC
S11300C06E98C79870FF02C0C59A01C0C598C79AB8
S11300D0F5E0FA95F1F70000C79825E02A95F1F7C5
S11300E000006E9A6FB9779BFECF98B3892B88BBBB
S11300F008951F920F920FB60F9211248F939F931E
S11301008FB190E090936F0080936E009F918F91D8
S11301100F900FBE0F901F9018950E9409010E9426
S1130120FF000E9449008FE99FE00197F1F700C0AA
S11301300000C3E069E970E084E00E9452009FEF90
S113014023ED80E3915020408040E1F700C000009F
S1130150C15081F780E690E00E944501FFCF90985E
S113016087EC90E00197F1F700C00000919887ECCC
S113017090E00197F1F700C000000895909A87EC91
S113018090E00197F1F700C00000919887EC90E0AF
S11301900197F1F700C00000089580FF02C0949A0F
S11301A001C0949881FF02C0959A01C0959882FF7E
S11301B002C0969A01C0969883FF02C0979A01C024
S11301C09798929A87EC90E00197F1F700C00000AD
S11301D0929887EC90E00197F1F700C00000089531
S11301E0CF93C82F0E94AF008C2F82958F700E94EE
S11301F0CD008C2F8F700E94CD00CF91089581E0A7
S11302000E94F0008FE39FE10197F1F700C0000026
S113021008958FEF81BB2FEF89EF90E0215080404C
S11302209040E1F700C0000083E00E94F0008FE1FD
S11302309EE40197F1F700C0000083E00E94F00003
S11302408FE99FE00197F1F700C0000083E00E946E
S1130250F00082E00E94F00088E20E94F0008CE04E
S11302600E94F00086E00E94F0000895CF93C82F0A
S11302700E94BE008C2F82958F700E94CD008C2F1F
S11302808F700E94CD00CF910895CF93DF93EC013E
S11302908881882331F021960E9436018991811149
S10F02A0FBCFDF91CF910895F894FFCFBD
S11102AC50726F6365737320646F6E6521007A
S9030000FC
