S00D0000436C6F636B2E737265632B
S11300000C94A7000C94C4000C94C4000C94C40079
S11300100C94C4000C94C4000C94C4000C94C4004C
S11300200C94C4000C9424030C94C4000C94C400D9
S11300300C94C4000C94C4000C94C4000C94C4002C
S11300400C94C4000C94C4000C94C4000C94C4001C
S11300500C94C40000407A10F35A00A0724E1809A0
S11300600010A5D4E80000E87648170000E40B541B
S1130070020000CA9A3B000000E1F50500008096EA
S11300809800000040420F000000A086010000001C
S1130090102700000000E8030000000064000000D6
S11300A000000A00000000000100000000002C769F
S11300B0D888DC674F0823DFC1DFAE59E1B1B796BA
S11300C0E5E3E453C63AE651997696E8E6C2842617
S11300D0EB898C9B62ED407C6FFCEFBC9C9F40F2F3
S11300E0BAA56FA5F490055A2AF75C936B6CF9676F
S11300F06DC11BFCE0E40D47FEF520E6B500D0ED34
S1130100902E0300943577050080841E080000209B
S11301104E0A000000C80C333333330F986E128339
S11301201141EF8D2114893BE65516CFFEE6DB180D
S1130130D1844B381BF77C1D901DA4BBE4242032D2
S113014084725E228100C9F124ECA1E53D271124CB
S11301501FBECFE5D8E0DEBFCDBF10E0A0E6B0E023
S1130160E2E7FDE002C005900D92AA36B107D9F787
S113017020E0AAE6B0E001C01D92AF36B207E1F775
S11301800E9481030C94B7060C940000672B09F0BD
S11301909FC0009711F4D89808958130910511F407
S11301A0D99808958230910511F4DA98089583302E
S11301B0910511F4DB9808958430910511F4DC98CD
S11301C008958530910511F4DD98089586309105E0
S11301D011F4DE9808958730910511F4DF9808959D
S11301E08A30910511F4C09808958B30910511F46B
S11301F0C19808958C30910511F4C29808958D30FA
S1130200910511F4C39808958E30910511F4C498A2
S113021008958F30910511F4C598089580319105A2
S113022011F4C69808958131910511F4C798089581
S11302308431910511F4A89808958531910511F43C
S1130240A99808958631910511F4AA9808958731E3
S1130250910511F4AB9808958831910511F4AC9887
S113026008958931910511F4AD9808958A31910565
S113027011F4AE9808958B31910511F4AF98089557
S11302808E31910511F4909808958F31910511F4F0
S1130290919808958032910511F4929808958132CD
S11302A0910511F4939808958232910511F494986C
S11302B008958332910511F4959808958432910537
S11302C011F496980895859709F09FC0979808951A
S11302D0009711F4D89A08958130910511F4D99AB0
S11302E008958230910511F4DA9A089583309105C6
S11302F011F4DB9A08958430910511F4DC9A089581
S11303008530910511F4DD9A08958630910511F434
S1130310DE9A08958730910511F4DF9A08958A30A2
S1130320910511F4C09A08958B30910511F4C19A86
S113033008958C30910511F4C29A08958D30910579
S113034011F4C39A08958E30910511F4C49A089556
S11303508F30910511F4C59A08958031910511F4F7
S1130360C69A08958131910511F4C79A089584318C
S1130370910511F4A89A08958531910511F4A99A6B
S113038008958631910511F4AA9A0895873191054B
S113039011F4AB9A08958831910511F4AC9A08953B
S11303A08931910511F4AD9A08958A31910511F4BA
S11303B0AE9A08958B31910511F4AF9A08958E3158
S11303C0910511F4909A08958F31910511F4919A41
S11303D008958032910511F4929A0895813291051D
S11303E011F4939A08958232910511F4949A089520
S11303F08332910511F4959A08958432910511F48C
S1130400969A0895859709F4979A0895CF93C82FDB
S113041080FF07C061E070E082E290E00E94C600C5
S113042006C060E070E082E290E00E94C600C1FF76
S113043007C061E070E083E290E00E94C60006C05D
S113044060E070E083E290E00E94C600C2FF07C053
S113045061E070E084E290E00E94C60006C060E0C3
S113046070E084E290E00E94C600C3FF07C061E030
S113047070E085E290E00E94C60006C060E070E093
S113048085E290E00E94C600CF910895CF93C82FD3
S113049060E070E08EE190E00E94C6008C2F0E9424
S11304A0060261E070E080E290E00E94C6008FE9FD
S11304B09FE00197F1F700C0000060E070E080E287
S11304C090E00E94C6008FE99FE00197F1F700C019
S11304D00000CF91089580E00E94460281E00E94CE
S11304E046020895CF93C62F813059F480E8860FD1
S11304F082958F700E9446028C2F8F700E94460254
S11305000CC0823051F480EC860F82958F700E946B
S113051046028C2F8F700E944602CF91089580E08E
S11305200E9406022FEF89EF90E021508040904016
S1130530E1F700C0000083E00E9446028FE19EE4E0
S11305400197F1F700C0000083E00E9446028FED9E
S11305509BEA0197F1F700C0000083E00E94460285
S113056082E00E94460282E00E94460288E00E94E5
S1130570460280E00E9446028CE00E94460280E02F
S11305800E94460286E00E9446020895CF93C82F37
S113059061E070E08EE190E00E94C6008C2F8295AD
S11305A08F700E94060261E070E080E290E00E9499
S11305B0C6008FE99FE00197F1F700C0000060E0FA
S11305C070E080E290E00E94C6008FE99FE001970E
S11305D0F1F700C000008C2F8F700E94060261E0CA
S11305E070E080E290E00E94C6008FE99FE00197EE
S11305F0F1F700C0000060E070E080E290E00E944B
S1130600C6008FE99FE00197F1F700C00000CF9189
S11306100895CF93DF93EC018881882331F02196EC
S11306200E94C60289918111FBCFDF91CF91089579
S11306308EB584608EBD8CED9BE09DBD8CBD7894A1
S113064089B7846089BF08951F920F920FB60F92E5
S113065011248F939F93EF93FF938CED9BE09DBDAB
S11306608CBDECE6F0E080818F5F808380818C33E9
S113067021F4108281818F5F818380916D008C339E
S113068031F4ECE6F0E0118282818F5F8283FF9186
S1130690EF919F918F910F900FBE0F901F9018951F
S11306A086B3082E000C990B809590958827990F96
S11306B0881F9927880F991FB69902C081E090E09E
S11306C0B59902C080E090E00895B09908C00E94F6
S11306D05003FC01E459FF4F90819F5F9083B199CF
S11306E008C00E945003FC01E459FF4F90819150CF
S11306F09083B29905C0ECE6F0E010821182128278
S113070008958FEF8ABB17BA88BB84BB81BB0E9454
S113071018030E948F020E946B0260E081E00E9435
S1130720720280E690E00E94090364E081E00E9486
S1130730720285E690E00E94090367E081E00E946E
S1130740720285E690E00E9409036AE081E00E945B
S1130750720285E690E00E9409036EE081E00E9447
S1130760720287E690E00E940903CCE6D0E00E9482
S11307706503888185BB898180958BBB6A8170E024
S113078080E090E00E94F4030AE610E020E042E0FA
S11307900E94310465E081E00E947202C8010E9457
S11307A00903698170E080E090E00E94F40320E096
S11307B042E00E94310468E081E00E947202C801B4
S11307C00E940903688170E080E090E00E94F403D5
S11307D020E042E00E9431046BE081E00E9472025A
S11307E0C8010E940903C3CFE89409C097FB3EF4F3
S11307F090958095709561957F4F8F4F9F4F99236A
S1130800A9F0F92F96E9BB279395F69587957795E7
S11308106795B795F111F8CFFAF4BB0F11F460FFA7
S11308201BC06F5F7F4F8F4F9F4F16C0882311F0FF
S113083096E911C0772321F09EE8872F762F05C013
S1130840662371F096E8862F70E060E02AF09A95AE
S1130850660F771F881FDAF7880F9695879597F9A3
S11308600895EF920F931F93CF93DF93E80147FD11
S113087002C034E001C034E1E42F440FFF0BF7FF62
S113088003C0F195E195F109E32E022F2E2FAE015D
S11308900E945104CE01DF91CF911F910F91EF90EF
S11308A008954F925F926F927F929F92AF92BF9200
S11308B0CF92DF92EF92FF920F931F93CF93DF9328
S11308C0CDB7DEB729970FB6F894DEBF0FBECDBF04
S11308D06A01122FB02E2BE3201720F0FF24F3948B
S11308E0F00E02C0BCE3FB2E0F2D27E0AE014F5FDC
S11308F05F4F0E94DF05AC018981982F9970913078
S113090031F0E1FC06C0E0FE06C090E205C09DE2C5
S113091003C09BE201C090E0EE2DE07183FF3CC078
S1130920911102C083E001C084E0811718F4212FE3
S1130930281B01C020E0E1110BC0F601822F30E238
S1130940882319F031938150FBCFC20ED11C20E0D3
S1130950992329F0D6019C93F60131966F01C601C3
S11309600396E2FE0AC03EE4D6013C9341E41196AC
S11309704C93119712963C9306C03EE6F6013083E1
S113098041E641833283FC01322F40E2332309F4F0
S113099042C041933150FACF82FF44C0911102C04A
S11309A083E001C084E0811718F4212F281B01C0C3
S11309B020E0E1110BC0F601822F30E2882319F008
S11309C031938150FBCFC20ED11C20E0992329F032
S11309D0D6019C93F60131966F01C6010396E2FE9F
S11309E00BC039E4D6013C933EE411963C93119735
S11309F036E412963C9307C039E6F60130833EE6AE
S1130A00318336E63283FC01322F40E2332319F07E
S1130A1041933150FBCFFC01E20FF11D10828EEFA8
S1130A209FEFB7C0F1E0911101C0F0E06F2F70E0CB
S1130A301416150624F49A012F5F3F4F02C021E0DB
S1130A4030E0260F371FBB2029F06B2D70E06F5F5D
S1130A507F4F02C060E070E0260F371F612F70E007
S1130A60261737071CF4121B212F01C020E03E2D4E
S1130A70387159F4D601322F60E2332319F06D93A3
S1130A803150FBCFC20ED11C20E0FF2331F0D60140
S1130A909C93B6016F5F7F4F6B01E1110BC0F601B0
S1130AA0922F30E3992319F031939150FBCFC20E6A
S1130AB0D11C20E09F2D940F3A81782F7071A72EBE
S1130AC084FF03C0313309F49150191624F499308A
S1130AD018F098E001C091E0E42F852F57FF02C081
S1130AE0E0E080E06E2F782FE0E0F0E0AEE29A2EB6
S1130AF03A01691A71082A01461A570A0B2D10E0A7
S1130B001195019511096F3F8FEF780729F4D601EC
S1130B109C92C60101966C014617570784F066162D
S1130B2077066CF47F01E40CF51CA1E0B0E0AC0F97
S1130B30BD1FEA0EFB1ED7011196BC9002C090E3C4
S1130B40B92E615071093196C60101967C01601776
S1130B50710724F0D601BC926C01D5CF64177507D8
S1130B6041F4363320F4353321F4A11002C081E37B
S1130B70B82EF601B082F701822F90E2882319F093
S1130B8091938150FBCFF701E20FF11D108280E0B9
S1130B9090E029960FB6F894DEBF0FBECDBFDF916B
S1130BA0CF911F910F91FF90EF90DF90CF90BF9066
S1130BB0AF909F907F906F905F904F9008952830F2
S1130BC008F027E03327DA01990F311D87FD916082
S1130BD000966105710539F432602E5F3D9330E370
S1130BE02A95E1F708959F3F30F08038710561053B
S1130BF009F03C5F3C5F3D93913008F08068911DA3
S1130C00DF93CF931F930F93FF92EF92192F987F47
S1130C109695E92F96959695E90FFF27E255FF4F94
S1130C2099273327EE24FF24A701E70105900894B0
S1130C30079428F4360FE71EF81E491F511D660F4E
S1130C40771F881F991F0694A1F70590079428F42D
S1130C50E70EF81E491F561FC11D770F881F991FE5
S1130C60661F0694A1F70590079428F4F80E491F0F
S1130C70561FC71FD11D880F991F661F771F069423
S1130C80A1F70590079420F4490F561FC71FD81FDA
S1130C90990F661F771F881F0694A9F784911095F2
S1130CA0177041F0D695C79557954795F794E794F3
S1130CB01A95C1F7E4E5F0E0689415901591359123
S1130CC06591959105907FE27395E118F10A430BC4
S1130CD0560BC90BD009C0F7E10CF11E431F561F78
S1130CE0C91FD01D7EF4703311F48A95E6CFE894C1
S1130CF0015030F0080F0AF40027021708F4202FDF
S1130D002395022F7A3328F079E37D932A95E9F726
S1130D1010C07D932A9589F6069497956795379523
S1130D2017951794E118F10A430B560BC90BD00918
S1130D3098F023957E9173957A3308F070E37C9351
S1130D402013B8F77E9170617D9330F0839571E341
S1130D507D9370E32A95E1F71124EF90FF900F91B2
S1130D601F91CF91DF91992787FD90950895F8946D
S1050D70FFCFAF
S10D0D7254696D65003A00504D000D
S9030000FC
