S0110000426C696E6B4C4544732E73726563DB
S11300000C942A000C9434000C9434000C943400A6
S11300100C9434000C9434000C9434000C9434008C
S11300200C9434000C9434000C9434000C9434007C
S11300300C9434000C9434000C9434000C9434006C
S11300400C9434000C9434000C9434000C9434005C
S11300500C94340011241FBECFE5D8E0DEBFCDBF21
S11300600E9436000C941A010C9400008FEF8ABB96
S113007087BB07E0CFEFBAEAA5E510E0D0E041E0A6
S113008050E020E830E0902F8BB380958BBB8BB38E
S1130090809588BB6FEF71EE84E0615070408040C2
S11300A0E1F700C00000915079F71BBAC8BB902F4C
S11300B08BB38B278BBB8BB3809588BBEFEF61EE43
S11300C074E0E15060407040E1F700C000001BBAEA
S11300D08BB3809588BB8FEFE1EE64E08150E04004
S11300E06040E1F700C000008BB38A278BBB8BB361
S11300F0809588BB7FEF81EEE4E071508040E04062
S1130100E1F700C00000915099F61BBAC8BB812FDB
S11301109D2FBA01082E02C0660F771F0A94E2F7DA
S11301206BBBB901082E02C0759567950A94E2F776
S1130130609568BB6FEF71EEE4E061507040E040A1
S1130140E1F700C0000001968730910511F71BBA52
S1130150C8BB812F9D2FB901082E02C075956795E4
S11301600A94E2F76BBBBA01082E02C0660F771F30
S11301700A94E2F7609568BB6FEF71EEE4E06150BA
S11301807040E040E1F700C000000196873091051F
S113019011F71BBAC8BB812F9D2FEBB3BA01082EF0
S11301A002C0660F771F0A94E2F76E2B6BBB78B31D
S11301B0F901082E02C0F595E7950A94E2F76E2F2F
S11301C06095672368BB6FEF71EEE4E061507040A7
S11301D0E040E1F700C00000019687309105E9F6A0
S11301E01BBAC8BB812F9D2FEBB3B901082E02C0E7
S11301F0759567950A94E2F76E2B6BBB78B3FA0199
S1130200082E02C0EE0FFF1F0A94E2F76E2F6095CE
S1130210672368BB6FEF71EEE4E061507040E0402B
S1130220E1F700C00000019687309105E9F61BBA9A
S10B0230C8BB29CFF894FFCFED
S9030000FC
