S00B00004144432E7372656351
S11300000C942A000C9447000C9447000C9447006D
S11300100C9447000C9447000C9447000C94470040
S11300200C9447000C9447000C9447000C94470030
S11300300C9447000C9447000C9447000C94470020
S11300400C9485000C9447000C9447000C944700D2
S11300500C94470011241FBECFE5D8E0DEBFCDBF0E
S113006010E0A0E6B0E0ECE6F3E002C005900D92EB
S1130070AE36B107D9F720E0AEE6B0E001C01D927C
S1130080A037B207E1F70E9449000C94B4010C9424
S113009000000E9478000E94F3000E94DB0061E0EF
S11300A081E00E94E50080E690E00E943B0180E050
S11300B00E94810061E082E00E94E50080916E0070
S11300C090916F000E944A0181E00E9481006BE0E0
S11300D082E00E94E50080916E0090916F000E9482
S11300E04A018FE99FE00197F1F700C00000DFCFDC
S11300F01ABA7894379A3E9A339A86B1856086B94B
S11301000895806487B9369A08951F920F920FB6A6
S11301100F9211242F938F939F9384B125B190E074
S1130120922B90936F0080936E009F918F912F91EB
S11301300F900FBE0F901F90189580FF02C0949AE5
S113014001C0949881FF02C0959A01C0959882FFDE
S113015002C0969A01C0969883FF02C0979A01C084
S11301609798929A87EC90E00197F1F700C000000D
S1130170929887EC90E00197F1F700C00000089591
S1130180CF93C82F909887EC90E00197F1F700C0C7
S11301900000919887EC90E00197F1F700C000000F
S11301A08C2F82958F700E949D008C2F8F700E94DF
S11301B09D00CF91089581E00E94C0008FE39FE1EC
S11301C00197F1F700C000000895813029F48FE70A
S11301D0860F0E94C0000895823021F48FEB860FB1
S11301E00E94C00008958FEF81BB2FEF89EF90E04C
S11301F0215080409040E1F700C0000083E00E945D
S1130200C0008FE19EE40197F1F700C0000083E095
S11302100E94C0008FE99FE00197F1F700C0000041
S113022083E00E94C00082E00E94C00088E20E9435
S1130230C0008CE00E94C00086E00E94C0000895C7
S1130240CF93C82F909A87EC90E00197F1F700C004
S11302500000919887EC90E00197F1F700C000004E
S11302608C2F82958F700E949D008C2F8F700E941E
S11302709D00CF910895CF93DF93EC01888188236B
S113028031F021960E94200189918111FBCFDF91E9
S1130290CF9108950F931F93CF93DF9300D000D095
S11302A01F92CDB7DEB78C014AE0BE016F5F7F4F6E
S11302B00E947F010A30110528F489E690E00E942B
S11302C03B010FC00436110528F48AE690E00E9431
S11302D03B0107C0083E134020F48BE690E00E94E7
S11302E03B01CE0101960E943B010F900F900F90AD
S11302F00F900F90DF91CF911F910F910895BB271D
S11303004A3031F4992322F4BDE2909581959F4FB0
S11303100C948B01BB27FB015527AA27880F991F33
S1130320AA1FA41710F0A41B83955051B9F7A05D20
S1130330AA3308F0A95DA193009779F7B111B1939D
S11303401192CB010C94A401DC01FC01672F719183
S11303507723E1F7329704C07C916D9370836291A7
S10F0360AE17BF07C8F30895F894FFCF50
S111036C4144432076616C3A0030303000008A
S9030000FC
