S01500004672656552544F535F44656D6F2E7372656361
S113000029C0000043C0000041C000003FC0000000
S11300103DC000003BC0000039C0000083C50000A3
S113002035C0000033C0000031C000002FC0000004
S11300302DC000002BC0000029C0000027C0000014
S11300403BC0000023C0000021C000001FC000000E
S11300501DC0000011241FBECFE5D8E0DEBFCDBF18
S113006010E0A0E6B0E0E0E8FAE102C005900D92ED
S1130070A83BB107D9F728E0A8EBB0E001C01D9276
S1130080AA32B207E1F731D10C943E0DB9CF1ABAB6
S1130090789486B1806886B987B1806487B986B15F
S11300A0886086B986B1856086B90895806487B909
S11300B086B1806486B908951F920F920FB60F928D
S11300C011242F938F939F9324B185B190E0982F9F
S11300D08827822B90932808809327089F918F91DB
S11300E02F910F900FBE0F901F90189587B38F77A5
S11300F087BB88B3806888BB089587B3816087BB5A
S113010088B3816088BB089582B38E7F82BB87ECFD
S113011090E00197F1F700C0000082B38D7F82BBAD
S113012087EC90E00197F1F700C00000089582B3D6
S1130130816082BB87EC90E00197F1F700C000007A
S113014082B38D7F82BB87EC90E00197F1F700C00A
S11301500000089580FF04C092B3906192BB03C075
S113016092B39F7E92BB81FF04C092B3906292BB14
S113017003C092B39F7D92BB82FF04C092B390648C
S113018092BB03C092B39F7B92BB83FF04C082B334
S1130190806882BB03C082B38F7782BB82B38460E2
S11301A082BB87EC90E00197F1F700C0000082B3B6
S11301B08B7F82BB87EC90E00197F1F700C00000D1
S11301C00895CF93C82FA0DF8C2F82958F70C2DF44
S11301D08C2F8F70BFDFCF91089581E0F2DF8FE322
S11301E09FE10197F1F700C000000895813021F4E8
S11301F08FE7860FE6CF0895823019F48FEB860FD0
S1130200E0CF08958FEF81BB2FEF89EF90E021506D
S113021080409040E1F700C0000083E0D2DF8FE12E
S11302209EE40197F1F700C0000083E0CADF8FE984
S11302309FE00197F1F700C0000083E0C2DF82E095
S1130240C0DF88E2BEDF8CE0BCDF86E0BACF089571
S1130250CF93C82F6CDF8C2F82958F707BDF8C2F10
S11302608F7078DFCF910895CF93DF93EC0102C0B4
S11302702196EEDF88818111FBCFDF91CF91089524
S11302800F931F93CF93DF9300D000D01F92CDB76D
S1130290DEB78C014AE0BE016F5F7F4F0E940B0DF9
S11302A00A30110520F480E690E0DEDF0DC004364C
S11302B0110520F481E690E0D7DF06C0083E134024
S11302C018F482E690E0D0DFCE010196CDDF0F90E6
S11302D00F900F900F900F90DF91CF911F910F917E
S11302E0089584B38FEF84BB0895FBDFD0DE8ADFEB
S11302F074DF03DFFBDE40E062E081E048D59093E9
S1130300BE008093BD00E12CF12C00E020E030E041
S113031046E950E064E670E083ED91E0C9D701E07E
S113032029E630E046E950E063E770E080E692E0D9
S1130330BFD720E030E046E950E068E770E085E7A9
S113034092E0B6D720E030E046E950E06DE770E097
S11303508FE892E0ADD702E020E030E046E950E0DB
S113036062E870E086E093E0A3D70F2EFBEBEF2E5C
S1130370F0E0FF2EF02D04E020E030E046E950E00C
S113038067E870E085E893E093D7E12CF12C03E073
S113039020E030E046E950E06FE870E08BE493E061
S11303A087D7D5D7FFCFCF93DF9300D0CDB7DEB7B4
S11303B0FCD79A83898310E00AC085B3809585BBF6
S11303C06AE070E0CE0101960E94010B1F5F1730B6
S11303D0A0F315BA10E018C08AEA85BB6AE070E0A1
S11303E0CE0101960E94010B15BA6AE070E0CE01BD
S11303F001960E94010B85E585BB6AE070E0CE01A1
S113040001960E94010B1F5F173030F315BA10E0FC
S113041010C081E090E0012E02C0880F991F0A9459
S1130420E2F785BB6AE070E0CE0101960E94010B01
S11304301F5F173070F315BA10E010C080E890E029
S1130440012E02C0959587950A94E2F785BB6AE070
S113045070E0CE0101960E94010B1F5F173070F30C
S113046015BA10E012C025B381E090E0012E02C05D
S1130470880F991F0A94E2F7822B85BB6AE070E02B
S1130480CE0101960E94010B1F5F173060F315BA6D
S113049010E012C025B380E890E0012E02C09595CB
S11304A087950A94E2F7822B85BB6AE070E0CE015F
S11304B001960E94010B1F5F173060F315BA7BCFC2
S11304C0CF93DF9300D0CDB7DEB78C016ED79A837C
S11304D0898361E081E08ADEC801C6DE69E270E0FA
S11304E0CE0101960E94010BF4CFCF93DF9300D08D
S11304F0CDB7DEB75AD79A8389836DE081E076DE83
S11305008091BA0091E0980F9093BA0090E0B8DE21
S113051062E270E0CE0101960E94010BEECFCF9310
S1130520DF9300D000D0CDB7DEB73FD79A8389835D
S113053020E044E650E0BE016D5F7F4F8091BD0036
S11305409091BE00CED469E082E050DE8B819C8124
S1130550009721F487E990E087DE52C08038910546
S113056038F487EA90E080DE88E990E07DDE48C0D8
S11305708F3F910509F038F486EA90E075DE89E949
S113058090E072DE3DC0803821E0920738F485EABD
S113059090E06ADE8AE990E067DE32C0811522E0ED
S11305A0920738F484EA90E05FDE8BE990E05CDE49
S11305B027C0803822E0920738F483EA90E054DEC2
S11305C08CE990E051DE1CC0811523E0920738F4D9
S11305D082EA90E049DE8DE990E046DE11C0803881
S11305E023E0920738F481EA90E03EDE8EE990E061
S11305F03BDE06C08115944018F480EA90E034DEB6
S113060066E170E0CE010196FCD792CFCF93DF93E1
S113061000D000D0CDB7DEB7C8D69A83898380E0F6
S113062045DD61E082E0E2DD8091270890912808B1
S113063027DE80912708909128089C838B8320E0F3
S113064040E050E0BE016D5F7F4F8091BD0090910E
S1130650BE00C5D38B819C81883E934060F412C058
S113066098B381E0892788BB62E070E0CE010196EF
S1130670C8D71F5F01C010E0123390F388B38160C4
S113068088BB03C088B3816088BB64E170E0CE019D
S11306900196B7D7C4CFCF93DF9300D0CDB7DEB7E1
S11306A084D69A83898386B3809580789091B900A3
S11306B0891789F09091B8009F5F9093B8009530A6
S11306C060F08093B900882319F081E080932908B1
S11306D01092B80002C01092B800809129088823B3
S11306E071F01092290800E010E022E040E050E0B0
S11306F0BA018091BB009091BC000E947D0C61E026
S113070070E0CE0101967DD7CECFCF93DF9300D09A
S1130710CDB7DEB74AD69A83898362E070E080E081
S11307200E94280C672B682B692BC1F061E081E0E3
S11307305DDD89EA90E098DD10E00AC098B381E0BD
S1130740892788BB67E070E0CE0101965AD71F5F06
S11307501431A0F388B3816088BBDFCF88B3816094
S113076088BBDBCFFC010396928381832FEF3FEF9D
S113077034832383968385839087878310820895A7
S1130780FC01118610860895CF93DF939C01FB0131
S1130790DC011196CD91DC911297D383C2838C81B5
S11307A09D81958384838C819D81DC0113967C9348
S11307B06E9312977D836C8331872087F901808142
S11307C08F5F8083DF91CF910895CF93DF93EB0107
S11307D0488159814F3F2FEF520721F4FC01A78133
S11307E0B0850DC0DC01139601C0DF011296ED91B6
S11307F0FC9113972081318142175307B0F7129669
S1130800ED91FC911397FB83EA83D583C483BD8365
S1130810AC831396DC93CE93129799878887FC0157
S113082020812F5F2083DF91CF910895CF93DF93B1
S1130830FC01A085B185C281D381848195819D838A
S11308408C83C481D581828193819B838A83119611
S11308508D919C911297E817F90731F48481958161
S113086012969C938E931197118610868C918150C9
S11308708C93DF91CF91089589E08BBD83EC8ABD81
S11308808BE08EBD89B7806189BF089531E1FC0199
S11308903083319722E220833197A3E3A0833197F9
S11308A060833197708331971082319760E8608359
S11308B031971082319762E06083319763E06083FF
S11308C0319764E06083319765E06083319766E037
S11308D06083319767E06083319768E06083319784
S11308E069E06083319760E16083319730833197A9
S11308F032E13083319733E13083319734E130830F
S1130900319735E13083319736E13083319737E1E0
S11309103083319738E13083319739E1308331972F
S113092030E23083319731E230833197208331973D
S113093023E220833197408331975083319726E215
S11309402083319727E22083319728E2208331974F
S113095029E22083319720E32083319721E3208308
S11309608697089589DFA0912508B0912608CD9136
S1130970CDBFDD91DEBFFF91EF91DF91CF91BF91AC
S1130980AF919F918F917F916F915F914F913F9123
S11309902F911F910F91FF90EF90DF90CF90BF9018
S11309A0AF909F908F907F906F905F904F903F900B
S11309B02F901F900F900FBE0F90089581E008951F
S11309C00F920FB6F8940F921F9211242F923F9218
S11309D04F925F926F927F928F929F92AF92BF924B
S11309E0CF92DF92EF92FF920F931F932F933F9337
S11309F04F935F936F937F938F939F93AF93BF9323
S1130A00CF93DF93EF93FF93A0912508B09126082D
S1130A100DB60D920EB60D9231D6A0912508B09167
S1130A202608CD91CDBFDD91DEBFFF91EF91DF911F
S1130A30CF91BF91AF919F918F917F916F915F9172
S1130A404F913F912F911F910F91FF90EF90DF9065
S1130A50CF90BF90AF909F908F907F906F905F905A
S1130A604F903F902F901F900F900FBE0F900895BE
S1130A700F920FB6F8940F921F9211242F923F9267
S1130A804F925F926F927F928F929F92AF92BF929A
S1130A90CF92DF92EF92FF920F931F932F933F9386
S1130AA04F935F936F937F938F939F93AF93BF9372
S1130AB0CF93DF93EF93FF93A0912508B09126087D
S1130AC00DB60D920EB60D927AD48111D7D5A091A0
S1130AD02508B0912608CD91CDBFDD91DEBFFF91F1
S1130AE0EF91DF91CF91BF91AF919F918F917F91C2
S1130AF06F915F914F913F912F911F910F91FF90B3
S1130B00EF90DF90CF90BF90AF909F908F907F90A9
S1130B106F905F904F903F902F901F900F900FBE5B
S1130B200F900895A5DF1895CF93DF93EC0137D488
S1130B308091BF009091C000892B31F484EC90E047
S1130B409093C0008093BF002091C1003091C200F7
S1130B50C9018C0F9D1F873047E0940770F4281754
S1130B60390770F4C091BF00D091C000C20FD31FE9
S1130B709093C2008093C10005C0C0E0D0E002C0E1
S1130B80C0E0D0E0D2D4CE01DF91CF910895089592
S1130B900FB6F8940F92FC01828D811102C081E09E
S1130BA001C080E00F900FBE08950FB6F8940F9225
S1130BB0FC01228D838D281302C081E001C080E0F6
S1130BC00F900FBE08950F931F93CF93DF93EC0103
S1130BD0042F1A8D4C8D4423A9F1011115C050E046
S1130BE08C819D810FD72C8D8C819D81820F911DCD
S1130BF09D838C832A813B818217930718F1888116
S1130C0099819D838C831EC050E08E819F81FAD68A
S1130C108C8D90E09195819591092E813F81280FCB
S1130C20391F3F832E83488159812417350730F4B7
S1130C302A813B81820F931F9F838E83023011F49C
S1130C40111111501F5F1A8F80E0DF91CF911F9116
S1130C500F910895FC01448D4423A1F050E02681B6
S1130C603781240F351F3783268382819381281788
S1130C70390720F08081918197838683CB01668137
S1130C807781C0C608951F93CF93DF93EC010FB60D
S1130C90F8940F921E8D09C08989882341F0CE01F2
S1130CA0419650D58111D0D511501116ACF38FEF68
S1130CB08E8F0F900FBE0FB6F8940F921D8D09C042
S1130CC08885882341F0CE0108963CD58111BCD596
S1130CD011501116ACF38FEF8D8F0F900FBEDF9173
S1130CE0CF911F910895CF93DF93EC010FB6F89441
S1130CF00F92E881F9818B8D90E02C8D30E0829FFA
S1130D00A001839F500D929F500D11244E0F5F1F21
S1130D105B834A831A8EFD83EC830197289FA0018D
S1130D20299F500D389F500D1124CF01840F951F1A
S1130D309F838E838FEF8D8F8E8F61110AC088857C
S1130D40882369F0CE010896FDD4882341F038DE6B
S1130D5006C0CE01089606DDCE01419603DD0F9054
S1130D600FBE81E0DF91CF9108950F931F93F80197
S1130D70611103C01183008302C051834083838FB8
S1130D80648F61E0CF01AFDF1F910F910895DF926F
S1130D90EF92FF920F931F93CF93DF93E82EF62EDB
S1130DA0D42E662321F0869FC001112402C080E066
S1130DB090E04F96B9DEEC01009741F08C012D2DA7
S1130DC0AC01415E5F4F6F2D8E2DCFDFCE01DF91E1
S1130DD0CF911F910F91FF90EF90DF900895CF92E4
S1130DE0DF92EF92FF920F931F93CF93DF9300D084
S1130DF000D01F92CDB7DEB78C017B015D834C839D
S1130E00C22ED12C0FB6F8940F92F801928D838DD7
S1130E10981718F0F2E0CF1215C04C2DB701C80195
S1130E20D2DEF8019189992339F0C80141968AD418
S1130E30882321F0C5DD02C08111C2DD0F900FBEF1
S1130E4081E041C08C819D81892B21F40F900FBEDC
S1130E5080E039C0D11005C0CE010196B9D4DD249B
S1130E60D3940F900FBE9BD20FB6F8940F92F80153
S1130E70858D8F3F09F4158EF801868D8F3F09F417
S1130E80168E0F900FBEBE016C5F7F4FCE01019690
S1130E90AAD4811114C0C80188DE882361F06C8152
S1130EA07D81C80108963ED4C801EDDE3ED3811190
S1130EB0A9CF86DDA7CFC801E6DE37D3A3CFC8010B
S1130EC0E2DE33D380E00F900F900F900F900F90DD
S1130ED0DF91CF911F910F91FF90EF90DF90CF9012
S1130EE008958F929F92BF92CF92DF92EF92FF92DA
S1130EF00F931F93CF93DF9300D000D01F92CDB7F1
S1130F00DEB78C016B015D834C83B22EE12C0FB6EE
S1130F10F8940F92F801F28CFF2019F186809780E3
S1130F20B601C80197DEB1100DC0FA94F801F28E33
S1130F308085882391F0C801089604D4882369F039
S1130F403FDD0BC0F801978286828189882329F0CE
S1130F50C8014196F7D3811133DD0F900FBE81E0B4
S1130F6046C08C819D81892B21F40F900FBE80E0B7
S1130F703EC0E11005C0CE0101962AD4EE24E394CC
S1130F800F900FBE0CD20FB6F8940F92F801858D16
S1130F908F3F09F4158EF801868D8F3F09F4168E64
S1130FA00F900FBEBE016C5F7F4FCE0101961BD424
S1130FB0811114C0C801ECDD882361F06C817D814E
S1130FC0C8014196AFD3C8015EDEAFD281119FCF75
S1130FD0F7DC9DCFC80157DEA8D299CFC80153DEF4
S1130FE0A4D2C801D5DD882309F491CF80E00F9005
S1130FF00F900F900F900F90DF91CF911F910F9151
S1131000FF90EF90DF90CF90BF909F908F900895C6
S1131010E091E407F091E5078081811107C08FEF2B
S11310209FEF9093CF078093CE070895E091E40754
S1131030F091E5070580F681E02D0680F781E02D2B
S1131040828193819093CF078093CE0708956F9206
S11310507F928F929F92AF92BF92CF92DF92EF9244
S11310600F931F93CF93DF93CDB7DEB74C01F501F8
S11310708789908D215031093C01620E731E20E056
S11310800FC0822F90E0FB01E80FF91F3081D501DA
S1131090A80FB91F59963C938081882319F02F5FBC
S11310A0283078F3F50110A2F4E0FE1518F46894E2
S11310B0EE24E2F8F501E68AC501029661DBC5017A
S11310C00C965EDBF501B186A08685E090E08E1972
S11310D0910995878487B38AA28A11A212A213A2C6
S11310E014A215A2A801B401C301D0DBF5019183B8
S11310F08083C114D10419F0F601B182A082DF917A
S1131100CF911F910F91EF90DF90CF90BF90AF9050
S11311109F908F907F906F9008958091F807823010
S1131120E0F34EDCFACFCF93C0E00FC08C2F90E0F9
S11311309C01220F331F220F331F220F331F820FF4
S1131140931F8850984F0EDBCF5FC53078F38FEE36
S113115097E008DB86EE97E005DB89ED97E002DB9C
S11311608FEE97E09093E5078093E40786EE97E08F
S11311709093E3078093E207CF910895CF93DF9391
S1131180EC010FB6F8940F928091D8078F5F80938B
S1131190D8078091250890912608892B51F4D09383
S11311A02608C09325088091D807813091F4BBDFCD
S11311B010C08091D40781110CC0E0912508F091F2
S11311C0260896898E89891720F0D0932608C09323
S11311D025088091D0078F5F8093D0078E899091E6
S11311E0D507981710F48093D50790E09C01220F3F
S11311F0331F220F331F220F331F820F931FBE0191
S11312006E5F7F4F8850984FBFDA0F900FBE80916A
S1131210D407882349F0E0912508F091260896899F
S11312208E89981708F4CCDBDF91CF9108950F9342
S11312301F93CF93DF93EC010091D6071091D7074A
S113124080912508909126080296F0DAC00FD11FEC
S1131250E0912508F0912608D383C283C017D107F3
S113126060F460912508709126088091E2079091BE
S1131270E3076E5F7F4FA9DA16C06091250870916D
S113128026088091E4079091E5076E5F7F4F9DDA11
S11312908091CE079091CF07C817D90720F4D09337
S11312A0CF07C093CE07DF91CF911F910F9108957F
S11312B02F923F924F925F926F927F928F929F9262
S11312C0AF92BF92CF92DF92EF92FF920F931F9350
S11312D0CF93DF933C011B015A012901CA0124DC8D
S11312E06C01892B61F086E290E01EDCEC01892B15
S11312F019F0D88ECF8A05C0C60149DC02C0C0E00F
S1131300D0E0209781F0950140E050E0812C912CB1
S11313105E016701E02E8201B101C30198DECE01B6
S11313202DDF81E001C08FEFDF91CF911F910F91ED
S1131330FF90EF90DF90CF90BF90AF909F908F90F1
S11313407F906F905F904F903F902F900895EF9211
S1131350FF920F930F2EFCECEF2EF7E0FF2EF02DF3
S113136000E020E030E046E950E063EB70E08DE817
S113137098E09EDF813079F4F8948FEF9FEF90939B
S1131380CF078093CE0781E08093D4071092D707CC
S11313901092D607E7DA0F91FF90EF9008958091AD
S11313A0CB078F5F8093CB0708950FB6F8940F9205
S11313B08091D6079091D7070F900FBE0895DF92C2
S11313C0EF92FF920F931F93CF93DF938091CB07FC
S11313D0811193C0E090D607F090D7078FEFE81AF9
S11313E0F80AF092D707E092D607E114F104B1F4B9
S11313F08091E4079091E5072091E2073091E3079B
S11314003093E5072093E4079093E3078093E20782
S11314108091D1078F5F8093D107FADD8091CE0749
S11314209091CF07E816F90628F4D12C50C0DD249A
S1131430D39401C0D12CE091E407F091E5078081B9
S1131440811107C08FEF9FEF9093CF078093CE0752
S11314503EC0E091E407F091E5070580F681E02DB8
S1131460C681D7818A819B81E816F90628F4909376
S1131470CF078093CE072BC08E010E5F1F4FC8018C
S1131480D5D98C899D89892B19F0CE010C96CED99A
S11314908E899091D507981710F48093D50790E022
S11314A09C01220F331F220F331F220F331F820F81
S11314B0931FB8018850984F67D99E89E0912508F9
S11314C0F09126088689981708F0B1CFB4CFE0913F
S11314D02508F0912608868990E0FC01EE0FFF1F95
S11314E0EE0FFF1FEE0FFF1F8E0F9F1FFC01E85032
S11314F0F84F8081823040F409C08091D3078F5F18
S11315008093D307D12C02C0DD24D3948091D207D9
S1131510882311F0DD24D3948D2DDF91CF911F9179
S11315200F91FF90EF90DF9008950F931F93CF9347
S1131530DF930FB6F8940F928091CB07815080937C
S1131540CB078091CB07811152C08091D8078111BC
S113155030C050C0E091DE07F091DF07C681D7812B
S1131560CE010C9663D98E010E5F1F4FC8015ED960
S11315708E899091D507981710F48093D50790E041
S11315809C01220F331F220F331F220F331F820FA0
S1131590931FB8018850984FF7D89E89E091250889
S11315A0F09126088689981730F081E08093D2075D
S11315B002C0C0E0D0E08091D9078111CBCFCD2B00
S11315C009F026DDC091D307CC2351F0F8DE88233F
S11315D019F081E08093D207C150C1F71092D3076C
S11315E08091D207882329F0EBD981E003C080E001
S11315F001C080E00F900FBEDF91CF911F910F913A
S113160008950F931F93CF93DF938C01EB01C7DEF3
S11316104091D6075091D707F80120813181C90143
S11316208C0F9D1F4217530740F48217930768F4E9
S11316304817590760F020E00FC08217930748F05D
S11316404817590740F020E007C020E005C021E01A
S113165003C021E001C021E0F801918380832223AB
S113166021F060E0841B950BE2DD5FDF811101C096
S1131670A7D9DF91CF911F910F9108958091CB0746
S1131680882321F081E08093D20708951092D20735
S11316902091D50701C02150822F90E0FC01EE0F6C
S11316A0FF1FEE0FFF1FEE0FFF1FE80FF91FE8509B
S11316B0F84F3081332379F3AC01440F551F440FA5
S11316C0551F440F551F480F591FDF010180F28138
S11316D0E02D0280F381E02D1296FC93EE93119796
S11316E04550584FE417F50729F442815381FD0111
S11316F052834183FC01EE0FFF1FEE0FFF1FEE0F1D
S1131700FF1F8E0F9F1FFC01E850F84F0180F281EC
S1131710E02D868197819093260880932508209355
S1131720D5070895CF93DF93EB016091250870915D
S11317302608645F7F4F49D861E0CE0178DDDF91F0
S1131740CF9108950F931F93CF93DF93DC011596E8
S1131750ED91FC911697C681D7818E01045F1F4FCE
S1131760C80164D88091CB0781111BC00A501109AC
S1131770C8015CD88E899091D507981710F480938E
S1131780D50790E09C01220F331F220F331F220F35
S1131790331F820F931FB8018850984F0E94C403CF
S11317A005C0B80189ED97E00E94C4039E89E091C9
S11317B02508F09126088689891720F481E0809312
S11317C0D20701C080E0DF91CF911F910F9108955E
S11317D02091D107FC0120832091D6073091D707AF
S11317E0328321830895CF93DF93FC010FB6F894DD
S11317F00F924091D6075091D70790818091D107DD
S1131800981729F08181928148175907A8F42181FA
S11318103281CA01821B930BEB01A881B9818A171B
S11318209B0760F4CF01241B350B2A0F3B1F398320
S11318302883CEDF80E003C081E001C081E00F9007
S11318400FBEDF91CF91089581E08093D207089570
S11318500F931F93CF93C82FCB010FB6F8940F9219
S1131860E0912508F091260841A152A163A174A139
S1131870452B462B472B59F4E0912508F091260877
S113188021E025A3009719F061E0D1DC99D80F90ED
S11318900FBE0FB6F8940F92E0912508F091260838
S11318A061A172A183A194A16115710581059105BE
S11318B0C9F0CC2349F0E0912508F091260811A243
S11318C012A213A214A20EC0E0912508F0912608DA
S11318D08B019C01015011092109310901A312A3B3
S11318E023A334A3E0912508F091260815A20F90B4
S11318F00FBECF911F910F910895EF92FF920F9316
S11319001F93CF93DF93FC010FB6F8940F92011548
S1131910110549F081A192A1A3A1B4A1E801888392
S11319209983AA83BB8385A192E095A32230B9F061
S113193018F4213031F02FC02330F9F0243019F19C
S11319402AC001A112A123A134A1402B512B622B47
S1131950732B41A352A363A374A311E01FC041A13D
S113196052A163A174A14F5F5F4F6F4F7F4F41A39B
S113197052A363A374A311E011C041A352A363A3B0
S113198074A311E00BC0823041F041A352A363A3BE
S113199074A311E003C011E001C010E0813041F5EF
S11319A0EF017F0182E0E80EF11CC7010E941604DA
S11319B08E899091D507981710F48093D50790E0FD
S11319C09C01220F331F220F331F220F331F820F5C
S11319D0931FB7018850984F0E94C4039E89E091D9
S11319E02508F09126088689891710F40E94E004DE
S11319F00F900FBE812FDF91CF911F910F91FF9018
S1131A00EF900895FB01DC0102C001900D9241505A
S1131A105040D8F70895BB274A3031F4992322F473
S1131A20BDE2909581959F4F01C0BB27FB015527CF
S1131A30AA27880F991FAA1FA41710F0A41B839527
S1131A405051B9F7A05DAA3308F0A95DA19300979E
S1131A5079F7B111B1931192CB0100C0DC01FC0103
S1131A60672F71917723E1F7329704C07C916D93CE
S1131A7070836291AE17BF07C8F30895F894FFCF3F
S1131A80303030004C454430004672656552544F46
S1131A905321004C434430004C434431004C4344F4
S1131AA03200414443300042757A7A657230004214
S1131AB07574746F6E30005F5F5F5F5F5F5F5F00C0
S1131AC02A2A2A2A2A2A2A2A004E6F7469666965F4
S10B1AD064210049444C450067
S9030000FC
