S018000049324320454550524F4D2032344330342E7372656339
S11300000C942A000C943F000C943F000C943F0085
S11300100C943F000C943F000C943F000C943F0060
S11300200C943F000C943F000C943F000C943F0050
S11300300C943F000C943F000C943F000C943F0040
S11300400C943F000C943F000C943F000C943F0030
S11300500C943F0011241FBECFE5D8E0DEBFCDBF16
S113006010E0A0E6B0E0E8EBF4E002C005900D92E9
S1130070AC3BB107D9F70E9441000C945A020C948E
S11300800000CF93DF93CDB7DEB762970FB6F89435
S1130090DEBF0FBECDBF0E94DA010E94C2010E94E2
S11300A0E20062E081E00E94CC0180E690E00E94E0
S11300B016022FEF83ED90E3215080409040E1F74A
S11300C000C000000E94C20180E790E00E94160276
S11300D0CE0101969E01275F3F4FFC014E2F481B26
S11300E04193E217F307D1F7BE016F5F7F4F80E0C2
S11300F00E94E800882309F442C00E94C2018BE7F1
S113010090E00E9416023BC00E94C2018DE890E07C
S11301100E9416022FEF83ED90E32150804090401F
S1130120E1F700C000000E94C2018FE990E00E9444
S113013016022FEF83ED90E3215080409040E1F7C9
S113014000C000000E94C2018DEA90E00E941602E5
S113015061E082E00E94CC0110E0812F0E9429011D
S11301604AE0BE01675F7F4F90E00E942502CE0106
S113017009960E9416021F5F1D3079F7FFCF2FEFFB
S113018083ED90E3215080409040E1F700C00000EF
S113019088E0898389E08A838AE08B838BE08C837F
S11301A08CE08D838DE08E838EE08F838FE0888753
S11301B0BE016F5F7F4F88E00E94E800882309F446
S11301C0A9CFA2CF87E680B981B18C7F81B9089588
S11301D030EA24E896B7946A96BF06B607FEFDCFC8
S11301E091B1987F983069F533B926BF06B607FEFA
S11301F0FDCF91B1987F983169F783B984E886BFC0
S113020006B607FEFDCF81B1887F8832E1F4FB0199
S11302109B01285F3F4F94E8819183B996BF06B64E
S113022007FEFDCF81B1887F883279F4E217F307A6
S113023099F781B1887F883251F484E986BF81E0DF
S1130240089580E0089580E0089580E0089580E0B6
S1130250089524EA40EA34E826BF06B607FEFDCF37
S113026091B1987F9830A1F543B936BF06B607FE21
S1130270FDCF91B1987F983179F783B984E886BF2F
S113028006B607FEFDCF81B1887F883219F584EA6E
S113029086BF06B607FEFDCF81B1887F8031E1F4C9
S11302A081EA83B984E886BF06B607FEFDCF81B133
S11302B0887F803499F484E886BF06B607FEFDCFB4
S11302C081B1887F883561F483B194E996BF08953C
S11302D080E0089580E0089580E0089580E0089526
S11302E080E00895909887EC90E00197F1F700C0C2
S11302F00000919887EC90E00197F1F700C00000AE
S11303000895909A87EC90E00197F1F700C00000FF
S1130310919887EC90E00197F1F700C000000895F0
S113032080FF02C0949A01C0949881FF02C0959AFC
S113033001C0959882FF02C0969A01C0969883FFE7
S113034002C0979A01C09798929A87EC90E001971F
S1130350F1F700C00000929887EC90E00197F1F764
S113036000C000000895CF93C82F0E9472018C2F03
S113037082958F700E9490018C2F8F700E94900143
S1130380CF91089581E00E94B3018FE39FE101972B
S1130390F1F700C000000895813029F48FE7860F3B
S11303A00E94B3010895823021F48FEB860F0E94DE
S11303B0B30108958FEF81BB2FEF89EF90E02150B7
S11303C080409040E1F700C0000083E00E94B30148
S11303D08FE19EE40197F1F700C0000083E00E94E2
S11303E0B3018FE99FE00197F1F700C0000083E0BB
S11303F00E94B30182E00E94B30188E20E94B3012B
S11304008CE00E94B30186E00E94B3010895CF936B
S1130410C82F0E9481018C2F82958F700E949001B9
S11304208C2F8F700E949001CF910895CF93DF930A
S1130430EC018881882331F021960E94070289917A
S11304408111FBCFDF91CF910895BB274A3031F45E
S1130450992322F4BDE2909581959F4F0C9431022B
S1130460BB27FB015527AA27880F991FAA1FA4178A
S113047010F0A41B83955051B9F7A05DAA3308F07E
S1130480A95DA193009779F7B111B1931192CB01B2
S11304900C944A02DC01FC01672F71917723E1F788
S11304A0329704C07C916D9370836291AE17BF073D
S10B04B0C8F30895F894FFCF8E
S11304B845787465726E616C20454550524F4D0005
S11304C857726974696E672E2E2E00577269747498
S11304D8656E203173742074696D65730057726991
S11304E87474656E20326E642074696D6573005689
S11304F86572696679696E67202E2E2E00446174D0
S10F0508612052657472696576656400B8
S9030000FC
