S00C0000554152542E73726563DC
S11300000C942A000C9447000C9447000C9447006D
S11300100C9447000C9447000C9447000C94470040
S11300200C9447000C9447000C9447000C94470030
S11300300C9447000C944F010C9447000C94470017
S11300400C9447000C9447000C9447000C94470010
S11300500C94470011241FBECFE5D8E0DEBFCDBF0E
S113006010E0A0E6B0E0ECEEF2E002C005900D92E4
S1130070AA39B107D9F721E0AAE9B0E001C01D927D
S1130080A030B207E1F70E9449000C9474010C946B
S113009000000E94D2000E94BA0061E080E00E9449
S11300A01D0161E081E00E94C40080E690E00E94AE
S11300B00E0161E082E00E94C4008AE690E00E94A2
S11300C00E0184E790E00E9440018FE790E00E94D7
S11300D04001FFCF909887EC90E00197F1F700C0C2
S11300E00000919887EC90E00197F1F700C00000C0
S11300F00895909A87EC90E00197F1F700C0000012
S1130100919887EC90E00197F1F700C00000089502
S113011080FF02C0949A01C0949881FF02C0959A0E
S113012001C0959882FF02C0969A01C0969883FFF9
S113013002C0979A01C09798929A87EC90E0019731
S1130140F1F700C00000929887EC90E00197F1F776
S113015000C000000895CF93C82F0E946A008C2F1E
S113016082958F700E9488008C2F8F700E94880067
S1130170CF91089581E00E94AB008FE39FE1019746
S1130180F1F700C000000895813029F48FE7860F4D
S11301900E94AB000895823021F48FEB860F0E94F9
S11301A0AB0008958FEF81BB2FEF89EF90E02150D2
S11301B080409040E1F700C0000083E00E94AB0063
S11301C08FE19EE40197F1F700C0000083E00E94F4
S11301D0AB008FE99FE00197F1F700C0000083E0D6
S11301E00E94AB0082E00E94AB0088E20E94AB0058
S11301F08CE00E94AB0086E00E94AB000895CF9390
S1130200C82F0E9479008C2F82958F700E948800DD
S11302108C2F8F700E948800CF910895CF93DF9325
S1130220EC018881882331F021960E94FF00899196
S11302308111FBCFDF91CF91089510BC97E699B956
S11302401BB8813029F478948AB180698AB903C0D3
S11302508AB18F768AB9613011F4539A01C05398E8
S113026080B5866880BD0895CF93C82F8A3019F46D
S11302708DE00E9434015D9BFECFCCB9CF910895EF
S1130280CF93DF93EC018881882331F021960E947B
S1130290340189918111FBCFDF91CF9108951F9291
S11302A00F920FB60F9211248F93EF93FF938CB19B
S11302B080939B0080919A00843611F410929A00E6
S11302C0E0919A0081E08E0F80939A00F0E0809193
S11302D09B00E456FF4F8083FF91EF918F910F9025
S10F02E00FBE0F901F901895F894FFCFEC
S11302EC446174612054783A20005541525420449E
S11302FC656D6F00554152542044656D6F0A00546E
S113030C6869732069732072756E6E696E672070EC
S10D031C726F7065726C790A0000BC
S9030000FC
