S01500004D4D432E5344776974685350492E73726563C5
S11300000C942A000C9447000C9447000C9447006D
S11300100C9447000C9447000C9447000C94470040
S11300200C9447000C9447000C9447000C94470030
S11300300C9447000C940F030C9447000C94470055
S11300400C9447000C9447000C9447000C94470010
S11300500C94470011241FBECFE5D8E0DEBFCDBF0E
S113006011E0A0E6B0E0ECE6F6E002C005900D92E7
S1130070A031B107D9F722E0A0E1B1E001C01D929F
S1130080A637B207E1F70E9449000C9434030C949C
S113009000008FEF84BB15BA0E9480010E946801A2
S11300A080E690E00E94BC0161E080E00E94DD02F5
S11300B00E941402A89A8111AEC02FEF83ED90E341
S11300C0215080409040E1F700C000000E94680188
S11300D08DE690E00E94BC014CE750E061E070E0E6
S11300E080E090E00E945402A99A811194C02FEFFD
S11300F083ED90E3215080409040E1F700C0000080
S11301000E9468018FEA90E00E94BC014EEB50E02F
S113011062E070E080E090E00E945402AA9A8111AB
S11301207AC02FEF83ED90E3215080409040E1F7B7
S113013000C000000E9468018DEC90E00E94BC01A8
S11301404CED50E063E070E080E090E00E945402E7
S1130150AB9A811160C02FEF83ED90E32150804072
S11301609040E1F700C000000E9468018CEE90E02E
S11301700E94BC0140E151E061E070E080E090E069
S11301800E949A02AC9A80E191E00E9400032FEF52
S113019083ED90E3215080409040E1F700C00000DF
S11301A00E94680140E151E062E070E080E090E08C
S11301B00E949A02AD9A80E191E00E94000380E1DE
S11301C091E00E94BC012FEF83ED90E32150804029
S11301D09040E1F700C0000040E151E063E070E0CE
S11301E080E090E00E949A02AE9A80E191E00E9441
S11301F0000361E082E00E94720180E191E00E94CC
S1130200BC012FEF83ED90E3215080409040E1F753
S113021000C0000006C00E9468018BEF90E00E94BD
S1130220BC010E94680183E091E00E94BC01FFCF01
S1130230D89887EC90E00197F1F700C00000D998B6
S113024087EC90E00197F1F700C000000895D89A78
S113025087EC90E00197F1F700C00000D99887EC93
S113026090E00197F1F700C00000089580FF02C0FC
S1130270DC9A01C0DC9881FF02C0DD9A01C0DD98E0
S113028082FF02C0DE9A01C0DE9883FF02C0DF9ABB
S113029001C0DF98DA9A87EC90E00197F1F700C08B
S11302A00000DA9887EC90E00197F1F700C00000B5
S11302B00895CF93C82F0E9418018C2F82958F70B8
S11302C00E9436018C2F8F700E943601CF910895C1
S11302D081E00E9459018FE39FE10197F1F700C08B
S11302E000000895813029F48FE7860F0E94590198
S11302F00895823021F48FEB860F0E9459010895EE
S11303008FEF8ABB2FEF89EF90E02150804090401F
S1130310E1F700C0000083E00E9459018FE19EE4F0
S11303200197F1F700C0000083E00E9459018FE9B2
S11303309FE00197F1F700C0000083E00E9459019B
S113034082E00E94590188E20E9459018CE00E94D7
S1130350590186E00E9459010895CF93C82F0E9445
S113036027018C2F82958F700E9436018C2F8F70FD
S11303700E943601CF910895CF93DF93EC018881D9
S1130380882331F021960E94AD0189918111FBCF20
S1130390DF91CF91089587B3806B87BBBE988DB1F1
S11303A0806D8DB908958FB9779BFECF08958FEF37
S11303B08FB9779BFECF8FB108951F93CF93DF93AF
S11303C0182FCEEFDFE00E94D701811711F021979B
S11303D0D0F781E0CD2B09F480E0DF91CF911F911C
S11303E00895FF920F931F93CF93DF93D42F152F6C
S11303F0062FF72EC22FC49880640E94D3018F2D3C
S11304000E94D301802F0E94D301812F0E94D30127
S11304108D2F0E94D3018C2F0E94D301DF91CF91A5
S11304201F910F91FF900895CF93DF930E94CB010A
S1130430C49ACAE0D0E08FEF0E94D3012197D9F784
S1130440C49825E940E050E0BA0180E00E94F1013F
S113045081E00E94DD01811107C081E080930F02D9
S1130460C49A80910F021DC02FEF40E050E0BA0102
S113047081E00E94F10180E00E94DD01811107C04A
S113048082E080930F02C49A80910F020AC02FEF7A
S11304904FEF50E060E070E080E10E94F101C49A07
S11304A080E0DF91CF9108950F931F93CF93DF9353
S11304B08A01C498AB01BC01032E39E0440F551FD7
S11304C0661F771F3A95D1F7302D25E988E10E9400
S11304D0F10180E00E94DD01811107C084E0809376
S11304E00F02C49A80910F0220C08EEF0E94D301A4
S11304F0E80101501F4F89910E94D301C017D10711
S1130500D1F78FEF0E94D3018FEF0E94D3010E9495
S1130510D7018F70853039F085E080930F02C49A3B
S113052080910F0202C0C49A80E0DF91CF911F91A5
S11305300F9108950F931F93CF93DF938A01C4986B
S1130540AB01BC01032E39E0440F551F661F771F12
S11305503A95D1F7302D2FEF81E10E94F10180E02F
S11305600E94DD01811107C087E080930F02C49AC5
S113057080910F021DC08EEF0E94DD01811107C022
S113058088E080930F02C49A80910F0211C0E801A1
S113059001501F4F0E94D7018993C017D107D1F78B
S11305A08FEF0E94D3018FEF0E94D301C49A80E0A1
S11305B0DF91CF911F910F91089510BC97E699B9DF
S11305C01BB8813029F478948AB180698AB903C050
S11305D08AB18F768AB9613011F4539A01C0539865
S11305E080B5866880BD0895CF93C82F8A3019F4EA
S11305F08DE00E94F4025D9BFECFCCB9CF910895AB
S1130600CF93DF93EC018881882331F021960E94F7
S1130610F40289918111FBCFDF91CF9108951F924C
S11306200F920FB60F9211248F93EF93FF938CB117
S11306308093110280911002843611F410921002FA
S1130640E091100281E08E0F80931002F0E080911F
S11306501102EE5EFD4F8083FF91EF918F910F9019
S10F06600FBE0F901F901895F894FFCF68
S113066C496E69742E204D4D432E2E2E00577269FF
S113067C74696E67203173742E2E2E00546869735E
S113068C20697320612064656D6F73747261746981
S113069C6F6E20666F722074686520757365206FA9
S11306AC66204D4D432E534420436172640A005717
S11306BC726974696E6720326E642E2E2E00576533
S11306CC6C636F6D6520746F2045450A0057726921
S11306DC74696E67203372642E2E2E0044656D6F20
S11306EC20666F72204D4D432E5344005265616455
S11306FC696E67203173742E2E2E004661696C6509
S113070C6421005375636365737366756C21000013
S9030000FC
