S01400004D61747269784B65797061642E737265633D
S11300000C942A000C9447000C9447000C9447006D
S11300100C9447000C9447000C9447000C94470040
S11300200C9447000C9447000C9447000C94470030
S11300300C9447000C9447000C9447000C94470020
S11300400C9447000C9447000C9447000C94470010
S11300500C94470011241FBECFE5D8E0DEBFCDBF0E
S113006010E0A0E6B0E0EEEEF2E002C005900D92E2
S1130070A238B107D9F720E0A2E8B0E001C01D9290
S1130080A338B207E1F70E94A5000C9475010C9403
S1130090000080EF8ABB8FE08BBB089589B38F305B
S11300A009F451C049B34F7084E090E061E070E01E
S11300B0E0E7F0E0DC019B01082E02C0220F331FB1
S11300C00A94E2F720952BBB25E02A95F1F700006E
S11300D029B32F70241330C02081421791F021815D
S11300E0421749F02281421749F02381421324C068
S11300F083E090E008C081E090E005C082E090E0F9
S113010002C080E090E02FE02BBB21E0209382002E
S11301103FEF45EA2EE0315040402040E1F700C077
S113012000001497AA0FBB1FAA0FBB1FA80FB91F6B
S1130130A05ABF4F8C91089501968830910509F01B
S1130140B9CF80E0089580E008950E942A010E94BA
S113015012010E94490061E081E00E941C0184E7D1
S113016090E00E94660161E082E00E941C010E940E
S11301704E00909182009923D1F30E94570110926E
S11301808200F5CF909887EC90E00197F1F700C0DA
S11301900000919887EC90E00197F1F700C000000F
S11301A00895909A87EC90E00197F1F700C0000061
S11301B0919887EC90E00197F1F700C00000089552
S11301C080FF02C0949A01C0949881FF02C0959A5E
S11301D001C0959882FF02C0969A01C0969883FF49
S11301E002C0979A01C09798929A87EC90E0019781
S11301F0F1F700C00000929887EC90E00197F1F7C6
S113020000C000000895CF93C82F0E94C2008C2F15
S113021082958F700E94E0008C2F8F700E94E00006
S1130220CF91089581E00E9403018FE39FE101973C
S1130230F1F700C000000895813029F48FE7860F9C
S11302400E9403010895823021F48FEB860F0E94EF
S1130250030108958FEF81BB2FEF89EF90E02150C8
S113026080409040E1F700C0000083E00E94030159
S11302708FE19EE40197F1F700C0000083E00E9443
S113028003018FE99FE00197F1F700C0000083E0CC
S11302900E94030182E00E94030188E20E9403019C
S11302A08CE00E94030186E00E9403010895CF932D
S11302B0C82F0E94D1008C2F82958F700E94E0007D
S11302C08C2F8F700E94E000CF910895CF93DF931D
S11302D0EC018881882331F021960E94570189918D
S11102E08111FBCFDF91CF910895F894FFCFE9
S11302EE3738392F3435362A3132332D4E303D2BB3
S11302FE0E0D0B074B657920707265737365643A46
S105030E0000E9
S9030000FC
