S00F0000427574746F6E732E7372656326
S11300000C942A000C943C000C943C000C943C008E
S11300100C943C000C943C000C943C000C943C006C
S11300200C943C000C943C000C943C000C943C005C
S11300300C943C000C943C000C943C000C943C004C
S11300400C943C000C943C000C943C000C943C003C
S11300500C943C0011241FBECFE5D8E0DEBFCDBF19
S113006020E0A0E6B0E001C01D92A336B207E1F79C
S11300700E9442000C9470000C94000017BA8FEF99
S113008088BB08950E943E008FEF84BB61E050E07E
S1130090362F452F86B3932F282F217080FD942F60
S11300A080916100981781F0809160008F5F809348
S11300B06000843658F090936100211102C030939F
S11300C062004093600002C040936000809162002F
S11300D0882301F35093620085B3862785BBDACF6A
S10700E0F894FFCFBE
S9030000FC
