S01500004672656552544F535F44656D6F2E7372656361
S113000029C0000043C0000041C000003FC0000000
S11300103DC000003BC0000039C0000030C50000F6
S113002035C0000033C0000031C000002FC0000004
S11300302DC000002BC0000029C0000027C0000014
S113004033C0000023C0000021C000001FC0000016
S11300501DC0000011241FBECFE5D8E0DEBFCDBF18
S113006010E0A0E6B0E0EEE2F8E102C005900D92E7
S1130070A83BB107D9F728E0A8EBB0E001C01D9276
S1130080AA32B207E1F7F7D00C94150CB9CF1ABA1B
S11300907894379A3E9A339A86B1856086B90895E2
S11300A0806487B9369A08951F920F920FB60F9203
S11300B011242F938F939F9384B125B190E0922BB9
S11300C090932808809327089F918F912F910F90E8
S11300D00FBE0F901F901895BF98C79A0895B89AAD
S11300E0C09A089580FF02C0949A01C0949881FF39
S11300F002C0959A01C0959882FF02C0969A01C0E9
S1130100969883FF02C0979A01C09798929A87ECB9
S113011090E00197F1F700C00000929887EC90E01E
S11301200197F1F700C000000895CF93C82F90986D
S113013087EC90E00197F1F700C00000919887ECFC
S113014090E00197F1F700C000008C2F82958F702A
S1130150C9DF8C2F8F70CF91C5CF81E0E6DF8FE3AD
S11301609FE10197F1F700C000000895813011F478
S11301708FE703C0823019F48FEB860FD6CF089532
S11301808FEF81BB2FEF89EF90E0215080409040AA
S1130190E1F700C0000083E0C8DF8FE19EE401972F
S11301A0F1F700C0000083E0C0DF8FE99FE0019712
S11301B0F1F700C0000083E0B8DF82E0B6DF88E238
S11301C0B4DF8CE0B2DF86E0B0CFCF93C82F909A33
S11301D087EC90E00197F1F700C00000919887EC5C
S11301E090E00197F1F700C000008C2F82958F708A
S11301F079DF8C2F8F70CF9175CFCF93DF93EC0184
S11302008991882311F0E1DFFBCFDF91CF9108952D
S11302100F931F93CF93DF9300D000D01F92CDB7DD
S1130220DEB78C014AE0BE016F5F7F4F0E94E20B94
S11302300A30110518F480E690E00BC0043611056D
S113024018F481E690E005C0083E134018F482E6F5
S113025090E0D3DFCE010196D0DF0F900F900F9086
S11302600F900F90DF91CF911F910F91089584B358
S11302708FEF84BB0895FBDF0ADF82DF6EDF2FDFA1
S11302802BDF40E062E081E0FCD49093BE008093D9
S1130290BD00E12CF12C00E020E030E046E950E024
S11302A064E670E087E991E099D601E029E630E060
S11302B046E950E063E770E08AE292E08FD620E0FE
S11302C030E046E950E068E770E08EE392E086D6DD
S11302D020E030E046E950E06DE770E087E592E029
S11302E07DD602E020E030E046E950E062E870E0CC
S11302F086EC92E073D68BEBE82E80E0F82E04E0D7
S113030020E030E046E950E067E870E089E393E0FC
S113031065D6E12CF12C03E020E030E046E950E022
S11303206FE870E082E093E059D64AD7FFCFCF93CD
S1130330DF9300D0CDB7DEB771D79A8389838AEA79
S1130340B82E95E5A92EEE24E394F12C30E8C32EC3
S1130350D12C17E085B3809585BB6AE070E0CE01AF
S113036001960E94290A1150A9F715BA17E0B5BAE7
S11303706AE070E0CE0101960E94290A15BA6AE08B
S113038070E0CE0101960E94290AA5BA6AE070E0E5
S1130390CE0101960E94290A115049F715BA00E0CE
S11303A010E0C701002E01C0880F0A94EAF785BB4C
S11303B06AE070E0CE0101960E94290A0F5F1F4F88
S11303C00730110571F715BA00E010E0C601002EE0
S11303D002C0959587950A94E2F785BB6AE070E0C0
S11303E0CE0101960E94290A0F5F1F4F07301105A5
S11303F069F715BA00E010E025B3C701002E01C06B
S1130400880F0A94EAF7822B85BB6AE070E0CE017C
S113041001960E94290A0F5F1F4F0730110561F7EB
S113042015BA00E010E025B3C601002E02C0959570
S113043087950A94E2F7822B85BB6AE070E0CE01CF
S113044001960E94290A0F5F1F4F0730110559F7C3
S113045015BA7FCFCF93DF9300D0CDB7DEB78C0131
S1130460DDD69A83898361E081E080DEC801C5DE40
S113047069E270E0CE010196ECD7F5CFCF93DF931C
S113048000D0CDB7DEB7CAD69A8389836DE081E008
S11304906DDE8091BA0091E0980F9093BA0090E0DD
S11304A0B7DE62E270E0CE010196D3D7EFCFCF93EF
S11304B0DF9300D000D0CDB7DEB7B0D69C838B835A
S11304C020E044E650E0BE016F5F7F4F8091BD00A5
S11304D09091BE0084D469E082E048DE89819A81EB
S11304E0009719F487E990E04AC08038910530F408
S11304F087EA90E082DE88E990E041C08F3F910571
S113050009F030F486EA90E078DE89E990E037C0BB
S1130510803821E0920730F485EA90E06EDE8AE9C3
S113052090E02DC0811522E0920730F484EA90E037
S113053064DE8BE990E023C0803822E0920730F437
S113054083EA90E05ADE8CE990E019C0811523E03B
S1130550920730F482EA90E050DE8DE990E00FC01B
S1130560803823E0920730F481EA90E046DE8EE999
S113057090E005C08115944018F480EA90E03DDED7
S113058066E170E0CE01039664D79ACFCF93DF93F0
S113059000D000D0CDB7DEB741D69C838B8301E079
S11305A080E07EDD61E082E0E1DD809127089091CA
S11305B028082EDE80912708909128089A83898341
S11305C020E040E050E0BE016F5F7F4F8091BD00AE
S11305D09091BE007CD389819A81883E934058F0E3
S11305E012E388B3802788BB62E070E0CE010396F3
S11305F030D71150B1F7C09A64E170E0CE01039690
S113060028D7CECFCF93DF9300D0CDB7DEB706D6B1
S11306109A838983FF24F39486B38095807890919C
S1130620B900891761F09091B8009F5F9093B8006A
S1130630953038F08093B9008111F0922908109216
S1130640B80080912908882371F01092290800E0ED
S113065010E022E040E050E0BA018091BB009091AC
S1130660BC000E94720B61E070E0CE010196F1D6ED
S1130670D3CFCF93DF9300D0CDB7DEB7CFD59A8356
S1130680898301E062E070E080E0DED7672B682BAD
S1130690692B89F061E081E069DD89EA90E0ADDDF4
S11306A014E188B3802788BB67E070E0CE0101962F
S11306B0D0D61150B1F7C09AE5CFFC0103969283CE
S11306C081832FEF3FEF3483238396838583908741
S11306D0878310820895FC01118610860895CF93B4
S11306E0DF939C01FB01DC011196CD91DC91129703
S11306F0D383C2838C819D81958384838C819D81E6
S1130700DC0113967C936E9312977D836C833187FF
S11307102087F90180818F5F8083DF91CF910895D5
S11307200F931F93CF93DF938C01FB018081918101
S11307308F3F2FEF920721F4E801AF81B8850EC0F7
S1130740D801139612962D913C911397E901488193
S113075059818417950710F0D901F4CF12968D9121
S11307609C91139793838283EC01FD83EC83B5837F
S1130770A4831396FC93EE93129711870087F801D4
S113078080818F5F8083DF91CF911F910F910895B6
S1130790CF93DF93FC01A085B1858281938124816D
S11307A03581EC013D832C83C481D5819B838A836D
S11307B011968D919C911297E817F90721F41296DE
S11307C0DC93CE931197118610868C9181508C9373
S11307D0DF91CF91089531E1FC013083319722E21A
S11307E020833197A3E3A08331976083319770838B
S11307F031971082319760E8608331971082319786
S113080062E06083319763E06083319764E06083E2
S1130810319765E06083319766E06083319767E0E4
S11308206083319768E06083319769E06083319732
S113083060E1608331973083319732E130833197BF
S113084033E13083319734E13083319735E13083BC
S1130850319736E13083319737E13083319738E18E
S11308603083319739E13083319730E230833197E7
S113087031E2308331972083319723E2208331970B
S1130880408331975083319726E22083319727E2C2
S11308902083319728E22083319729E220833197FE
S11308A020E32083319721E320838697089589E00C
S11308B08BBD83EC8ABD8BE08EBD89B7806189BF17
S11308C0A0912508B0912608CD91CDBFDD91DEBF62
S11308D0FF91EF91DF91CF91BF91AF919F918F9154
S11308E07F916F915F914F913F912F911F910F9144
S11308F0FF90EF90DF90CF90BF90AF909F908F903C
S11309007F906F905F904F903F902F901F900F902B
S11309100FBE0F90089581E008950F920FB6F894DA
S11309200F921F9211242F923F924F925F926F92D7
S11309307F928F929F92AF92BF92CF92DF92EF926B
S1130940FF920F931F932F933F934F935F936F9354
S11309507F938F939F93AF93BF93CF93DF93EF9343
S1130960FF93A0912508B09126080DB60D920EB6FE
S11309700D92A2D5A0912508B0912608CD91CDBFA6
S1130980DD91DEBFFF91EF91DF91CF91BF91AF91E8
S11309909F918F917F916F915F914F913F912F9193
S11309A01F910F91FF90EF90DF90CF90BF90AF9089
S11309B09F908F907F906F905F904F903F902F907B
S11309C01F900F900FBE0F9008950F920FB6F894DA
S11309D00F921F9211242F923F924F925F926F9227
S11309E07F928F929F92AF92BF92CF92DF92EF92BB
S11309F0FF920F931F932F933F934F935F936F93A4
S1130A007F938F939F93AF93BF93CF93DF93EF9392
S1130A10FF93A0912508B09126080DB60D920EB64D
S1130A200D9206D4811148D5A0912508B0912608CD
S1130A30CD91CDBFDD91DEBFFF91EF91DF91CF91DD
S1130A40BF91AF919F918F917F916F915F914F91E2
S1130A503F912F911F910F91FF90EF90DF90CF90D6
S1130A60BF90AF909F908F907F906F905F904F90CA
S1130A703F902F901F900F900FBE0F900895A5DF09
S1130A801895CF93DF93EC01C3D38091BF0090916D
S1130A90C000892B31F484EC90E09093C0008093E3
S1130AA0BF002091C1003091C200C9018C0F9D1F6D
S1130AB0873047E0940770F42817390758F4C09139
S1130AC0BF00D091C000C20FD31F9093C200809387
S1130AD0C10002C0C0E0D0E053D4CE01DF91CF9179
S1130AE0089508950F931F93CF93DF93EC01042F80
S1130AF01A8D4C8D4423A1F150E0011114C08C8156
S1130B009D8157D62C8D8C819D81820F911D9D8353
S1130B108C832A813B818217930710F18881998104
S1130B209D838C831DC08E819F8143D68C8D90E0E4
S1130B309195819591092E813F81280F391F3F831B
S1130B402E83488159812417350730F42A813B814B
S1130B50820F931F9F838E83023011F41111115061
S1130B601F5F1A8F80E0DF91CF911F910F9108953D
S1130B70FC01CB01448D442399F050E02681378158
S1130B80240F351F37832683628173812617370725
S1130B9020F020813181378326836681778109C6DD
S1130BA00895EF92FF921F93CF93DF93EC010FB65A
S1130BB0F8940F921E8D7C0181E1E80EF11C111650
S1130BC04CF48989882331F0C701C7D4811138D501
S1130BD01150F5CF8FEF8E8F0F900FBE0FB6F89494
S1130BE00F921D8D7E0188E0E80EF11C11164CF465
S1130BF08885882331F0C701B0D4811121D51150E3
S1130C00F5CF8FEF8D8F0F900FBEDF91CF911F9196
S1130C10FF90EF900895CF93DF93EC010FB6F89413
S1130C200F92288139819B8D4C8D949FC001112492
S1130C30F901E80FF91FFB83EA831A8E3D832C83A5
S1130C40841B9109820F931F9F838E838FEF8D8F57
S1130C508E8F61110AC08885882369F0CE010896B9
S1130C607CD4882341F059DE06C0CE01089625DDE8
S1130C70CE01419622DD0F900FBE81E0DF91CF912E
S1130C8008950F931F93CF93DF93082F162F662396
S1130C9021F0869FC001112402C080E090E04F96AD
S1130CA0F0DEEC01009769F0111103C09983888389
S1130CB003C04F96998388830B8F1C8F61E0CE010C
S1130CC0AADFCE01DF91CF911F910F910895AF92CA
S1130CD0BF92CF92DF92FF920F931F93CF93DF9334
S1130CE000D000D01F92CDB7DEB78C016B015D83BD
S1130CF04C83F22E80E0580198E0A90EB11C0FB687
S1130D00F8940F92F801228D938D291718F0F2E0D0
S1130D10FF1211C04F2DB601C801E4DEF80191891C
S1130D20992319F0C801419618D48111F6DD0F906A
S1130D300FBE81E045C02C813D81232B19F40F9017
S1130D400FBE3DC0811103C0CE01019643D40F9064
S1130D500FBE5ED20FB6F8940F92F801858D8F3FC7
S1130D6009F4158EF801868D8F3F09F4168E0F90C5
S1130D700FBEBE016C5F7F4FCE01019636D4811148
S1130D801BC00FB6F8940F92F801928D0F900FBE0E
S1130D90838D98130DC06C817D81C501D0D3C801AA
S1130DA000DFEED2882311F081E0A9CFB6DDFCCFBD
S1130DB0C801F7DEE5D2F8CFC801F3DEE1D280E066
S1130DC00F900F900F900F900F90DF91CF911F9184
S1130DD00F91FF90DF90CF90BF90AF900895AF92A6
S1130DE0BF92CF92DF92EF92FF920F931F93CF9314
S1130DF0DF9300D000D01F92CDB7DEB78C016B011A
S1130E005D834C83E22E80E0580191E1A90EB11C70
S1130E100FB6F8940F92F801F28CFF2009F1A68026
S1130E20B780B601C801A4DEE1100DC0FA94F80140
S1130E30F28E8085882381F0C80108968ED388239A
S1130E4059F06BDD09C0F801B782A6828189882335
S1130E5019F0C8014196F2CF0F900FBE81E04DC04A
S1130E602C813D81232B21F40F900FBE80E045C0DF
S1130E70811103C0CE010196ADD30F900FBEC8D12E
S1130E800FB6F8940F92F801858D8F3F09F4158EF3
S1130E90F801868D8F3F09F4168E0F900FBEBE01A8
S1130EA06C5F7F4FCE010196A0D381111AC00FB69B
S1130EB0F8940F92F801828D0F900FBE81110DC02E
S1130EC06C817D81C5013BD3C8016BDE59D2882377
S1130ED011F081E09DCF21DDFCCFC80162DE50D24C
S1130EE0F8CFC8015EDE4CD20FB6F8940F92F80129
S1130EF0828D0F900FBE8111ECCF0F900F900F9049
S1130F000F900F90DF91CF911F910F91FF90EF9071
S1130F10DF90CF90BF90AF9008958091F807823012
S1130F20F0F3FBDCFACFE091E407F091E507808170
S1130F30811103C08FEF9FEF0CC0E091E407F091A3
S1130F40E5070580F681E02D0680F781E02D82819A
S1130F5093819093CF078093CE0708950F931F93A7
S1130F60CF93DF93EC010091D6071091D7078091BE
S1130F7025089091260802960BDCC00FD11FE09142
S1130F802508F0912608D383C283609125087091C7
S1130F902608C017D10758F48091E2079091E3071F
S1130FA06E5F7F4FDF91CF911F910F91B9CB8091ED
S1130FB0E4079091E5076E5F7F4FB2DB8091CE0727
S1130FC09091CF07C817D90720F4D093CF07C093C7
S1130FD0CE07DF91CF911F910F9108953F924F92C9
S1130FE05F926F927F928F929F92AF92BF92CF92B5
S1130FF0DF92EF92FF920F931F93CF93DF934C01F5
S1131000162F372E6A015901CA013BDD2C01892BA9
S113101009F4C3C086E290E034DD3C01009789F016
S1131020DC0158965C924E925797E6012197C40DC5
S1131030D51DBC01675E7F4FE12FF32DCF010896CC
S113104006C0C2014EDDA9C08E179F0749F09F015B
S11310504191DB014D93BD01D9012C912111F4CFB4
S1131060F30110A2053008F004E0D30156960C9366
S11310706301B2E0CB0ED11CC6012DDBC3010C967B
S11310802ADBF3017186608685E090E0801B91097C
S113109095878487738A628A11A212A213A214A26A
S11310A015A2A501B401CE0196DBF30191838083DF
S11310B0E114F10419F0D7016D927C920FB6F89403
S11310C00F928091D8078F5F8093D807809125086D
S11310D090912608892B41F5709226086092250884
S11310E08091D807813089F5C8EFD7E005E218E090
S11310F0CE01E3DA29960C171D07D1F78FEE97E09E
S1131100DCDA86EE97E0D9DA89ED97E0D6DA8FEE6D
S113111097E09093E5078093E40786EE97E0909339
S1131120E3078093E20711C08091D40781110DC0B9
S1131130E0912508F09126089689F301868989179C
S113114020F070922608609225088091D0078F5F66
S11311508093D007D30156968C919091D507981718
S113116010F48093D507B9E08B9FC0011124B60118
S11311708850984FB4DA0F900FBE8091D40788231B
S113118051F0E0912508F09126089689F3018689AB
S1131190981708F4C2DB81E001C08FEFDF91CF9193
S11311A01F910F91FF90EF90DF90CF90BF90AF9081
S11311B09F908F907F906F905F904F903F90089595
S11311C0EF92FF920F938CECE82E87E0F82E00E06C
S11311D020E030E046E950E063EB70E08DE897E012
S11311E0FDDE813089F4F8942FEF3FEF3093CF0781
S11311F02093CE078093D4071092D7071092D60776
S11312000F91FF90EF9053CB0F91FF90EF900895C3
S11312108091CB078F5F8093CB0708950FB6F89426
S11312200F928091D6079091D7070F900FBE089523
S1131230CF92DF92EF92FF920F931F93CF93DF939E
S11312408091CB07811188C00091D6071091D707F0
S11312500F5F1F4F1093D7070093D6070115110591
S1131260B1F48091E4079091E5072091E207309171
S1131270E3073093E5072093E4079093E307809313
S1131280E2078091D1078F5F8093D1074CDE809174
S1131290CE079091CF07C0E00817190708F44CC097
S11312A0D9E0E091E407F091E5078081811103C062
S11312B08FEF9FEF11C0E091E407F091E5070580FF
S11312C0F681E02DE680F780D70112968D919C91EE
S11312D013970817190728F49093CF078093CE0724
S11312E02BC06701B2E0CB0ED11CC60151DAF70165
S11312F084899589892B19F0C7010C9649DAD7019D
S113130056968C919091D507981710F48093D50731
S1131310D89FC0011124B6018850984FE0D9E091BC
S11313202508F0912608D70156969C91868998172E
S113133008F4B7CFC1E0B5CFE0912508F0912608B5
S1131340E689B9E0EB9FF0011124E850F84F808161
S1131350823040F0C1E006C08091D3078F5F809354
S1131360D307C0E08091D2078111C1E08C2FDF91B7
S1131370CF911F910F91FF90EF90DF90CF90089540
S1131380EF92FF920F931F93CF93DF930FB6F894CE
S11313900F928091CB0781508093CB078091CB072C
S11313A0882311F080E04CC08091D8078823D1F3C2
S11313B0C0E0D0E089E0F82EEE24E3948091D907D0
S11313C0882339F1E091DE07F091DF07C681D781E8
S11313D0CE010C96DDD98E010E5F1F4FC801D8D9FE
S11313E08E899091D507981710F48093D507F89EAD
S11313F0C0011124B8018850984F71D9E091250893
S1131400F09126089E8986899817C0F2E092D20747
S1131410D5CFCD2B09F087DDC091D307CC2349F07C
S1131420D1E006DF8111D093D207C150D1F71092D9
S1131430D3078091D207882309F4B4CF6EDA81E010
S11314400F900FBEDF91CF911F910F91FF90EF90FE
S113145008950F931F93CF93DF938C01EB01D8DE94
S11314604091D6075091D707F80120813181C901F5
S11314708C0F9D1F4217530720F48217930740F4E3
S113148003C08217930730F021E04817590718F07A
S113149020E001C021E0F80191838083222319F028
S11314A0841B950B5BDD6CDF811101C036DADF91A3
S11314B0CF911F910F9108958091CB07882321F03C
S11314C081E08093D20708951092D2078091D507C6
S11314D069E0482F50E0649F9001659F300D11240E
S11314E0F901E850F84F9081911102C08150F1CF79
S11314F0A181B28112960D90BC91A02DB283A183DB
S11315002550384FA217B30731F412962D913C9110
S113151013973283218399E0949FF001959FF00DF6
S11315201124E850F84F0180F281E02D26813781A3
S113153030932608209325088093D5070895CF93E8
S1131540DF93EB016091250870912608645F7F4F5B
S1131550E7D8CE01DF91CF9101CD0F931F93CF93A5
S1131560DF93DC011596ED91FC911697C681D78126
S11315708E01045F1F4FC8010BD98091CB078111E5
S113158013C00A501109C80103D98E899091D50757
S1131590981710F48093D507B9E08B9FC0011124EC
S11315A0B8018850984F03C0B80189ED97E097D8E7
S11315B0E0912508F09126089E898689891720F4F0
S11315C081E08093D20701C080E0DF91CF911F9129
S11315D00F9108952091D107FC0120832091D60713
S11315E03091D7073283218308950FB6F8940F9270
S11315F0E091D607F091D7074091D107DC015C91C7
S113160011962D913C911297541719F0E217F30794
S113161098F4DB014D915C91DF01A21BB30BA4177D
S1131620B50750F4DB012E1B3F0B240F351F2D9300
S11316303C93D0DF80E001C081E00F900FBE08959D
S113164081E08093D20708950F931F93182FCB0145
S11316500FB6F8940F92E0912508F091260841A165
S113166052A163A174A1452B462B472B51F4E09161
S11316702508F091260821E025A3009711F06EDCDF
S11316804CD90F900FBE0FB6F8940F92E091250835
S1131690F091260861A172A183A194A1611571053D
S11316A081059105A9F0E0912508F0912608112300
S11316B029F011A212A213A214A20AC08B019C0148
S11316C0015011092109310901A312A323A334A351
S11316D0E0912508F091260815A20F900FBE1F91E6
S11316E00F9108950F931F93CF93DF93FC010FB6CF
S11316F0F8940F920115110549F081A192A1A3A1BB
S1131700B4A1E80188839983AA83BB8335A182E0CD
S113171085A3223089F058F4213001F581A192A1EA
S1131720A3A1B4A1482B592B6A2B7B2B13C02330C4
S113173089F0243069F012C081A192A1A3A1B4A1BF
S11317400196A11DB11D81A392A3A3A3B4A306C0B6
S1131750323039F141A352A363A374A33130F9F4B5
S1131760EF018F010E5F1F4FC80112D88E8990912F
S1131770D507981710F48093D50729E0829FC001FC
S11317801124B8018850984F0E946F03E0912508F6
S1131790F09126089E898689891708F4BED881E0CD
S11317A001C080E00F900FBEDF91CF911F910F9188
S11317B00895FB01DC0102C001900D92415050409C
S11317C0D8F70895BB274A3031F4992322F4BDE2B7
S11317D0909581959F4F01C0BB27FB015527AA27F0
S11317E0880F991FAA1FA41710F0A41B83955051AA
S11317F0B9F7A05DAA3308F0A95DA193009779F722
S1131800B111B1931192CB0100C0DC01FC01672F2F
S113181071917723E1F7329704C07C916D937083C3
S11118206291AE17BF07C8F30895F894FFCF86
S113182E303030004C454430004672656552544F9A
S113183E5321004C434430004C434431004C434448
S113184E3200414443300042757A7A657230004268
S113185E7574746F6E30005F5F5F5F5F5F5F5F0014
S113186E2A2A2A2A2A2A2A2A004E6F746966696548
S10B187E64210049444C4500BB
S9030000FC
